{"abi":[{"type":"constructor","inputs":[{"name":"_oracle","type":"address","internalType":"address"},{"name":"_usdc","type":"address","internalType":"address"},{"name":"_feeRecipient","type":"address","internalType":"address"},{"name":"_feeBps","type":"uint16","internalType":"uint16"}],"stateMutability":"nonpayable"},{"type":"receive","stateMutability":"payable"},{"type":"function","name":"ADMIN_OVERRIDE_DELAY","inputs":[],"outputs":[{"name":"","type":"uint64","internalType":"uint64"}],"stateMutability":"view"},{"type":"function","name":"DEFAULT_ADMIN_ROLE","inputs":[],"outputs":[{"name":"","type":"bytes32","internalType":"bytes32"}],"stateMutability":"view"},{"type":"function","name":"MAX_FEE_BPS","inputs":[],"outputs":[{"name":"","type":"uint16","internalType":"uint16"}],"stateMutability":"view"},{"type":"function","name":"MAX_PARSE_WINDOW","inputs":[],"outputs":[{"name":"","type":"uint64","internalType":"uint64"}],"stateMutability":"view"},{"type":"function","name":"OPERATOR_ROLE","inputs":[],"outputs":[{"name":"","type":"bytes32","internalType":"bytes32"}],"stateMutability":"view"},{"type":"function","name":"SETTLER_ROLE","inputs":[],"outputs":[{"name":"","type":"bytes32","internalType":"bytes32"}],"stateMutability":"view"},{"type":"function","name":"addStrike","inputs":[{"name":"ticker","type":"bytes32","internalType":"bytes32"},{"name":"strikePrice","type":"int64","internalType":"int64"},{"name":"expiryTimestamp","type":"uint64","internalType":"uint64"}],"outputs":[{"name":"","type":"bytes32","internalType":"bytes32"}],"stateMutability":"nonpayable"},{"type":"function","name":"adminSettleOverride","inputs":[{"name":"marketId","type":"bytes32","internalType":"bytes32"},{"name":"manualPrice","type":"int64","internalType":"int64"}],"outputs":[],"stateMutability":"nonpayable"},{"type":"function","name":"allMarketIds","inputs":[{"name":"","type":"uint256","internalType":"uint256"}],"outputs":[{"name":"","type":"bytes32","internalType":"bytes32"}],"stateMutability":"view"},{"type":"function","name":"balanceOf","inputs":[{"name":"account","type":"address","internalType":"address"},{"name":"id","type":"uint256","internalType":"uint256"}],"outputs":[{"name":"","type":"uint256","internalType":"uint256"}],"stateMutability":"view"},{"type":"function","name":"balanceOfBatch","inputs":[{"name":"accounts","type":"address[]","internalType":"address[]"},{"name":"ids","type":"uint256[]","internalType":"uint256[]"}],"outputs":[{"name":"","type":"uint256[]","internalType":"uint256[]"}],"stateMutability":"view"},{"type":"function","name":"bestAsk","inputs":[{"name":"marketId","type":"bytes32","internalType":"bytes32"}],"outputs":[{"name":"","type":"uint8","internalType":"uint8"}],"stateMutability":"view"},{"type":"function","name":"bestBid","inputs":[{"name":"marketId","type":"bytes32","internalType":"bytes32"}],"outputs":[{"name":"","type":"uint8","internalType":"uint8"}],"stateMutability":"view"},{"type":"function","name":"bulkCancelOrders","inputs":[{"name":"orderIds","type":"uint256[]","internalType":"uint256[]"}],"outputs":[],"stateMutability":"nonpayable"},{"type":"function","name":"buyNoLimit","inputs":[{"name":"marketId","type":"bytes32","internalType":"bytes32"},{"name":"quantity","type":"uint128","internalType":"uint128"},{"name":"limitYesSalePrice","type":"uint8","internalType":"uint8"}],"outputs":[],"stateMutability":"nonpayable"},{"type":"function","name":"buyNoMarket","inputs":[{"name":"marketId","type":"bytes32","internalType":"bytes32"},{"name":"quantity","type":"uint128","internalType":"uint128"},{"name":"minYesSaleProceeds","type":"uint128","internalType":"uint128"},{"name":"maxFills","type":"uint8","internalType":"uint8"}],"outputs":[],"stateMutability":"nonpayable"},{"type":"function","name":"cancelOrder","inputs":[{"name":"orderId","type":"uint256","internalType":"uint256"}],"outputs":[],"stateMutability":"nonpayable"},{"type":"function","name":"createStrikeMarket","inputs":[{"name":"ticker","type":"bytes32","internalType":"bytes32"},{"name":"strikePrice","type":"int64","internalType":"int64"},{"name":"expiryTimestamp","type":"uint64","internalType":"uint64"}],"outputs":[{"name":"","type":"bytes32","internalType":"bytes32"}],"stateMutability":"nonpayable"},{"type":"function","name":"depthAt","inputs":[{"name":"marketId","type":"bytes32","internalType":"bytes32"},{"name":"side","type":"uint8","internalType":"enum OrderBookLib.Side"},{"name":"priceCents","type":"uint8","internalType":"uint8"}],"outputs":[{"name":"","type":"uint128","internalType":"uint128"}],"stateMutability":"view"},{"type":"function","name":"feeBps","inputs":[],"outputs":[{"name":"","type":"uint16","internalType":"uint16"}],"stateMutability":"view"},{"type":"function","name":"feeRecipient","inputs":[],"outputs":[{"name":"","type":"address","internalType":"address"}],"stateMutability":"view"},{"type":"function","name":"getMarkets","inputs":[{"name":"count","type":"uint256","internalType":"uint256"}],"outputs":[{"name":"result","type":"tuple[]","internalType":"struct MeridianMarket.MarketView[]","components":[{"name":"marketId","type":"bytes32","internalType":"bytes32"},{"name":"ticker","type":"bytes32","internalType":"bytes32"},{"name":"strikePrice","type":"int64","internalType":"int64"},{"name":"expiryTimestamp","type":"uint64","internalType":"uint64"},{"name":"settled","type":"bool","internalType":"bool"},{"name":"yesWins","type":"bool","internalType":"bool"},{"name":"vaultBalance","type":"uint256","internalType":"uint256"},{"name":"feeBpsSnapshot","type":"uint16","internalType":"uint16"}]}],"stateMutability":"view"},{"type":"function","name":"getRoleAdmin","inputs":[{"name":"role","type":"bytes32","internalType":"bytes32"}],"outputs":[{"name":"","type":"bytes32","internalType":"bytes32"}],"stateMutability":"view"},{"type":"function","name":"grantRole","inputs":[{"name":"role","type":"bytes32","internalType":"bytes32"},{"name":"account","type":"address","internalType":"address"}],"outputs":[],"stateMutability":"nonpayable"},{"type":"function","name":"hasRole","inputs":[{"name":"role","type":"bytes32","internalType":"bytes32"},{"name":"account","type":"address","internalType":"address"}],"outputs":[{"name":"","type":"bool","internalType":"bool"}],"stateMutability":"view"},{"type":"function","name":"isApprovedForAll","inputs":[{"name":"account","type":"address","internalType":"address"},{"name":"operator","type":"address","internalType":"address"}],"outputs":[{"name":"","type":"bool","internalType":"bool"}],"stateMutability":"view"},{"type":"function","name":"marketCount","inputs":[],"outputs":[{"name":"","type":"uint256","internalType":"uint256"}],"stateMutability":"view"},{"type":"function","name":"markets","inputs":[{"name":"marketId","type":"bytes32","internalType":"bytes32"}],"outputs":[{"name":"ticker","type":"bytes32","internalType":"bytes32"},{"name":"strikePrice","type":"int64","internalType":"int64"},{"name":"pythFeedId","type":"bytes32","internalType":"bytes32"},{"name":"expiryTimestamp","type":"uint64","internalType":"uint64"},{"name":"totalPairsMinted","type":"uint256","internalType":"uint256"},{"name":"vaultBalance","type":"uint256","internalType":"uint256"},{"name":"feeBpsSnapshot","type":"uint16","internalType":"uint16"},{"name":"settled","type":"bool","internalType":"bool"},{"name":"yesWins","type":"bool","internalType":"bool"}],"stateMutability":"view"},{"type":"function","name":"maxConfBps","inputs":[],"outputs":[{"name":"","type":"uint16","internalType":"uint16"}],"stateMutability":"view"},{"type":"function","name":"mintPair","inputs":[{"name":"marketId","type":"bytes32","internalType":"bytes32"},{"name":"quantity","type":"uint128","internalType":"uint128"}],"outputs":[],"stateMutability":"nonpayable"},{"type":"function","name":"noTokenId","inputs":[{"name":"marketId","type":"bytes32","internalType":"bytes32"}],"outputs":[{"name":"","type":"uint256","internalType":"uint256"}],"stateMutability":"pure"},{"type":"function","name":"onERC1155BatchReceived","inputs":[{"name":"","type":"address","internalType":"address"},{"name":"","type":"address","internalType":"address"},{"name":"","type":"uint256[]","internalType":"uint256[]"},{"name":"","type":"uint256[]","internalType":"uint256[]"},{"name":"","type":"bytes","internalType":"bytes"}],"outputs":[{"name":"","type":"bytes4","internalType":"bytes4"}],"stateMutability":"pure"},{"type":"function","name":"onERC1155Received","inputs":[{"name":"","type":"address","internalType":"address"},{"name":"","type":"address","internalType":"address"},{"name":"","type":"uint256","internalType":"uint256"},{"name":"","type":"uint256","internalType":"uint256"},{"name":"","type":"bytes","internalType":"bytes"}],"outputs":[{"name":"","type":"bytes4","internalType":"bytes4"}],"stateMutability":"pure"},{"type":"function","name":"orderMarket","inputs":[{"name":"orderId","type":"uint256","internalType":"uint256"}],"outputs":[{"name":"marketId","type":"bytes32","internalType":"bytes32"}],"stateMutability":"view"},{"type":"function","name":"orderOwner","inputs":[{"name":"orderId","type":"uint256","internalType":"uint256"}],"outputs":[{"name":"owner","type":"address","internalType":"address"}],"stateMutability":"view"},{"type":"function","name":"orderPriceCents","inputs":[{"name":"orderId","type":"uint256","internalType":"uint256"}],"outputs":[{"name":"priceCents","type":"uint8","internalType":"uint8"}],"stateMutability":"view"},{"type":"function","name":"orderSide","inputs":[{"name":"orderId","type":"uint256","internalType":"uint256"}],"outputs":[{"name":"","type":"uint8","internalType":"enum OrderBookLib.Side"}],"stateMutability":"view"},{"type":"function","name":"pause","inputs":[],"outputs":[],"stateMutability":"nonpayable"},{"type":"function","name":"paused","inputs":[],"outputs":[{"name":"","type":"bool","internalType":"bool"}],"stateMutability":"view"},{"type":"function","name":"placeOrder","inputs":[{"name":"marketId","type":"bytes32","internalType":"bytes32"},{"name":"side","type":"uint8","internalType":"enum OrderBookLib.Side"},{"name":"priceCents","type":"uint8","internalType":"uint8"},{"name":"quantity","type":"uint128","internalType":"uint128"},{"name":"isIOC","type":"bool","internalType":"bool"}],"outputs":[{"name":"orderId","type":"uint256","internalType":"uint256"}],"stateMutability":"nonpayable"},{"type":"function","name":"pyth","inputs":[],"outputs":[{"name":"","type":"address","internalType":"contract IPyth"}],"stateMutability":"view"},{"type":"function","name":"redeem","inputs":[{"name":"marketId","type":"bytes32","internalType":"bytes32"},{"name":"quantity","type":"uint256","internalType":"uint256"}],"outputs":[],"stateMutability":"nonpayable"},{"type":"function","name":"renounceRole","inputs":[{"name":"role","type":"bytes32","internalType":"bytes32"},{"name":"callerConfirmation","type":"address","internalType":"address"}],"outputs":[],"stateMutability":"nonpayable"},{"type":"function","name":"revokeRole","inputs":[{"name":"role","type":"bytes32","internalType":"bytes32"},{"name":"account","type":"address","internalType":"address"}],"outputs":[],"stateMutability":"nonpayable"},{"type":"function","name":"safeBatchTransferFrom","inputs":[{"name":"from","type":"address","internalType":"address"},{"name":"to","type":"address","internalType":"address"},{"name":"ids","type":"uint256[]","internalType":"uint256[]"},{"name":"values","type":"uint256[]","internalType":"uint256[]"},{"name":"data","type":"bytes","internalType":"bytes"}],"outputs":[],"stateMutability":"nonpayable"},{"type":"function","name":"safeTransferFrom","inputs":[{"name":"from","type":"address","internalType":"address"},{"name":"to","type":"address","internalType":"address"},{"name":"id","type":"uint256","internalType":"uint256"},{"name":"value","type":"uint256","internalType":"uint256"},{"name":"data","type":"bytes","internalType":"bytes"}],"outputs":[],"stateMutability":"nonpayable"},{"type":"function","name":"sellNoMarket","inputs":[{"name":"marketId","type":"bytes32","internalType":"bytes32"},{"name":"noAmount","type":"uint128","internalType":"uint128"},{"name":"maxYesBuyPrice","type":"uint8","internalType":"uint8"},{"name":"maxFills","type":"uint8","internalType":"uint8"}],"outputs":[],"stateMutability":"nonpayable"},{"type":"function","name":"setApprovalForAll","inputs":[{"name":"operator","type":"address","internalType":"address"},{"name":"approved","type":"bool","internalType":"bool"}],"outputs":[],"stateMutability":"nonpayable"},{"type":"function","name":"setFee","inputs":[{"name":"bps","type":"uint16","internalType":"uint16"}],"outputs":[],"stateMutability":"nonpayable"},{"type":"function","name":"setFeeRecipient","inputs":[{"name":"recipient","type":"address","internalType":"address"}],"outputs":[],"stateMutability":"nonpayable"},{"type":"function","name":"setMaxConfBps","inputs":[{"name":"bps","type":"uint16","internalType":"uint16"}],"outputs":[],"stateMutability":"nonpayable"},{"type":"function","name":"setOracle","inputs":[{"name":"oracle","type":"address","internalType":"address"}],"outputs":[],"stateMutability":"nonpayable"},{"type":"function","name":"setSupportedFeed","inputs":[{"name":"ticker","type":"bytes32","internalType":"bytes32"},{"name":"feedId","type":"bytes32","internalType":"bytes32"},{"name":"enabled","type":"bool","internalType":"bool"}],"outputs":[],"stateMutability":"nonpayable"},{"type":"function","name":"settleMarket","inputs":[{"name":"marketId","type":"bytes32","internalType":"bytes32"},{"name":"priceUpdate","type":"bytes[]","internalType":"bytes[]"},{"name":"minPublishTime","type":"uint64","internalType":"uint64"},{"name":"maxPublishTime","type":"uint64","internalType":"uint64"}],"outputs":[],"stateMutability":"payable"},{"type":"function","name":"supportedFeeds","inputs":[{"name":"ticker","type":"bytes32","internalType":"bytes32"}],"outputs":[{"name":"feedId","type":"bytes32","internalType":"bytes32"}],"stateMutability":"view"},{"type":"function","name":"supportedTickers","inputs":[{"name":"ticker","type":"bytes32","internalType":"bytes32"}],"outputs":[{"name":"enabled","type":"bool","internalType":"bool"}],"stateMutability":"view"},{"type":"function","name":"supportsInterface","inputs":[{"name":"interfaceId","type":"bytes4","internalType":"bytes4"}],"outputs":[{"name":"","type":"bool","internalType":"bool"}],"stateMutability":"view"},{"type":"function","name":"tokenIdIsYes","inputs":[{"name":"tokenId","type":"uint256","internalType":"uint256"}],"outputs":[{"name":"isYes","type":"bool","internalType":"bool"}],"stateMutability":"view"},{"type":"function","name":"tokenIdToMarket","inputs":[{"name":"tokenId","type":"uint256","internalType":"uint256"}],"outputs":[{"name":"marketId","type":"bytes32","internalType":"bytes32"}],"stateMutability":"view"},{"type":"function","name":"unpause","inputs":[],"outputs":[],"stateMutability":"nonpayable"},{"type":"function","name":"uri","inputs":[{"name":"id","type":"uint256","internalType":"uint256"}],"outputs":[{"name":"","type":"string","internalType":"string"}],"stateMutability":"view"},{"type":"function","name":"usdc","inputs":[],"outputs":[{"name":"","type":"address","internalType":"contract IERC20"}],"stateMutability":"view"},{"type":"function","name":"yesTokenId","inputs":[{"name":"marketId","type":"bytes32","internalType":"bytes32"}],"outputs":[{"name":"","type":"uint256","internalType":"uint256"}],"stateMutability":"pure"},{"type":"event","name":"AdminSettled","inputs":[{"name":"marketId","type":"bytes32","indexed":true,"internalType":"bytes32"},{"name":"yesWins","type":"bool","indexed":false,"internalType":"bool"},{"name":"manualPrice","type":"int64","indexed":false,"internalType":"int64"}],"anonymous":false},{"type":"event","name":"ApprovalForAll","inputs":[{"name":"account","type":"address","indexed":true,"internalType":"address"},{"name":"operator","type":"address","indexed":true,"internalType":"address"},{"name":"approved","type":"bool","indexed":false,"internalType":"bool"}],"anonymous":false},{"type":"event","name":"FeeRecipientUpdated","inputs":[{"name":"oldRecipient","type":"address","indexed":false,"internalType":"address"},{"name":"newRecipient","type":"address","indexed":false,"internalType":"address"}],"anonymous":false},{"type":"event","name":"FeeUpdated","inputs":[{"name":"oldBps","type":"uint16","indexed":false,"internalType":"uint16"},{"name":"newBps","type":"uint16","indexed":false,"internalType":"uint16"}],"anonymous":false},{"type":"event","name":"MarketCreated","inputs":[{"name":"marketId","type":"bytes32","indexed":true,"internalType":"bytes32"},{"name":"ticker","type":"bytes32","indexed":true,"internalType":"bytes32"},{"name":"strikePrice","type":"int64","indexed":false,"internalType":"int64"},{"name":"expiryTimestamp","type":"uint64","indexed":false,"internalType":"uint64"},{"name":"pythFeedId","type":"bytes32","indexed":false,"internalType":"bytes32"}],"anonymous":false},{"type":"event","name":"MarketSettled","inputs":[{"name":"marketId","type":"bytes32","indexed":true,"internalType":"bytes32"},{"name":"yesWins","type":"bool","indexed":false,"internalType":"bool"},{"name":"settlePrice","type":"int64","indexed":false,"internalType":"int64"},{"name":"publishTime","type":"uint256","indexed":false,"internalType":"uint256"}],"anonymous":false},{"type":"event","name":"OrderCancelled","inputs":[{"name":"marketId","type":"bytes32","indexed":true,"internalType":"bytes32"},{"name":"orderId","type":"uint256","indexed":true,"internalType":"uint256"},{"name":"owner","type":"address","indexed":true,"internalType":"address"},{"name":"remainingQty","type":"uint128","indexed":false,"internalType":"uint128"}],"anonymous":false},{"type":"event","name":"OrderFilled","inputs":[{"name":"marketId","type":"bytes32","indexed":true,"internalType":"bytes32"},{"name":"orderId","type":"uint256","indexed":true,"internalType":"uint256"},{"name":"maker","type":"address","indexed":true,"internalType":"address"},{"name":"taker","type":"address","indexed":false,"internalType":"address"},{"name":"side","type":"uint8","indexed":false,"internalType":"uint8"},{"name":"priceCents","type":"uint8","indexed":false,"internalType":"uint8"},{"name":"qty","type":"uint128","indexed":false,"internalType":"uint128"}],"anonymous":false},{"type":"event","name":"OrderPlaced","inputs":[{"name":"marketId","type":"bytes32","indexed":true,"internalType":"bytes32"},{"name":"orderId","type":"uint256","indexed":true,"internalType":"uint256"},{"name":"owner","type":"address","indexed":true,"internalType":"address"},{"name":"side","type":"uint8","indexed":false,"internalType":"enum OrderBookLib.Side"},{"name":"priceCents","type":"uint8","indexed":false,"internalType":"uint8"},{"name":"quantity","type":"uint128","indexed":false,"internalType":"uint128"}],"anonymous":false},{"type":"event","name":"PairMinted","inputs":[{"name":"marketId","type":"bytes32","indexed":true,"internalType":"bytes32"},{"name":"user","type":"address","indexed":true,"internalType":"address"},{"name":"quantity","type":"uint256","indexed":false,"internalType":"uint256"}],"anonymous":false},{"type":"event","name":"Paused","inputs":[{"name":"account","type":"address","indexed":false,"internalType":"address"}],"anonymous":false},{"type":"event","name":"Redeemed","inputs":[{"name":"marketId","type":"bytes32","indexed":true,"internalType":"bytes32"},{"name":"user","type":"address","indexed":true,"internalType":"address"},{"name":"quantity","type":"uint256","indexed":false,"internalType":"uint256"},{"name":"payout","type":"uint256","indexed":false,"internalType":"uint256"}],"anonymous":false},{"type":"event","name":"RoleAdminChanged","inputs":[{"name":"role","type":"bytes32","indexed":true,"internalType":"bytes32"},{"name":"previousAdminRole","type":"bytes32","indexed":true,"internalType":"bytes32"},{"name":"newAdminRole","type":"bytes32","indexed":true,"internalType":"bytes32"}],"anonymous":false},{"type":"event","name":"RoleGranted","inputs":[{"name":"role","type":"bytes32","indexed":true,"internalType":"bytes32"},{"name":"account","type":"address","indexed":true,"internalType":"address"},{"name":"sender","type":"address","indexed":true,"internalType":"address"}],"anonymous":false},{"type":"event","name":"RoleRevoked","inputs":[{"name":"role","type":"bytes32","indexed":true,"internalType":"bytes32"},{"name":"account","type":"address","indexed":true,"internalType":"address"},{"name":"sender","type":"address","indexed":true,"internalType":"address"}],"anonymous":false},{"type":"event","name":"SupportedFeedSet","inputs":[{"name":"ticker","type":"bytes32","indexed":true,"internalType":"bytes32"},{"name":"feedId","type":"bytes32","indexed":false,"internalType":"bytes32"},{"name":"enabled","type":"bool","indexed":false,"internalType":"bool"}],"anonymous":false},{"type":"event","name":"TransferBatch","inputs":[{"name":"operator","type":"address","indexed":true,"internalType":"address"},{"name":"from","type":"address","indexed":true,"internalType":"address"},{"name":"to","type":"address","indexed":true,"internalType":"address"},{"name":"ids","type":"uint256[]","indexed":false,"internalType":"uint256[]"},{"name":"values","type":"uint256[]","indexed":false,"internalType":"uint256[]"}],"anonymous":false},{"type":"event","name":"TransferSingle","inputs":[{"name":"operator","type":"address","indexed":true,"internalType":"address"},{"name":"from","type":"address","indexed":true,"internalType":"address"},{"name":"to","type":"address","indexed":true,"internalType":"address"},{"name":"id","type":"uint256","indexed":false,"internalType":"uint256"},{"name":"value","type":"uint256","indexed":false,"internalType":"uint256"}],"anonymous":false},{"type":"event","name":"URI","inputs":[{"name":"value","type":"string","indexed":false,"internalType":"string"},{"name":"id","type":"uint256","indexed":true,"internalType":"uint256"}],"anonymous":false},{"type":"event","name":"Unpaused","inputs":[{"name":"account","type":"address","indexed":false,"internalType":"address"}],"anonymous":false},{"type":"error","name":"AccessControlBadConfirmation","inputs":[]},{"type":"error","name":"AccessControlUnauthorizedAccount","inputs":[{"name":"account","type":"address","internalType":"address"},{"name":"neededRole","type":"bytes32","internalType":"bytes32"}]},{"type":"error","name":"AlreadySettled","inputs":[{"name":"marketId","type":"bytes32","internalType":"bytes32"}]},{"type":"error","name":"ConfidenceTooWide","inputs":[{"name":"conf","type":"uint64","internalType":"uint64"},{"name":"absPrice","type":"uint64","internalType":"uint64"},{"name":"thresholdBps","type":"uint16","internalType":"uint16"}]},{"type":"error","name":"ERC1155InsufficientBalance","inputs":[{"name":"sender","type":"address","internalType":"address"},{"name":"balance","type":"uint256","internalType":"uint256"},{"name":"needed","type":"uint256","internalType":"uint256"},{"name":"tokenId","type":"uint256","internalType":"uint256"}]},{"type":"error","name":"ERC1155InvalidApprover","inputs":[{"name":"approver","type":"address","internalType":"address"}]},{"type":"error","name":"ERC1155InvalidArrayLength","inputs":[{"name":"idsLength","type":"uint256","internalType":"uint256"},{"name":"valuesLength","type":"uint256","internalType":"uint256"}]},{"type":"error","name":"ERC1155InvalidOperator","inputs":[{"name":"operator","type":"address","internalType":"address"}]},{"type":"error","name":"ERC1155InvalidReceiver","inputs":[{"name":"receiver","type":"address","internalType":"address"}]},{"type":"error","name":"ERC1155InvalidSender","inputs":[{"name":"sender","type":"address","internalType":"address"}]},{"type":"error","name":"ERC1155MissingApprovalForAll","inputs":[{"name":"operator","type":"address","internalType":"address"},{"name":"owner","type":"address","internalType":"address"}]},{"type":"error","name":"EnforcedPause","inputs":[]},{"type":"error","name":"ExpectedPause","inputs":[]},{"type":"error","name":"FeeTooHigh","inputs":[{"name":"bps","type":"uint16","internalType":"uint16"}]},{"type":"error","name":"InsufficientProceed","inputs":[{"name":"got","type":"uint128","internalType":"uint128"},{"name":"minExpected","type":"uint128","internalType":"uint128"}]},{"type":"error","name":"InvalidPrice","inputs":[{"name":"priceCents","type":"uint8","internalType":"uint8"}]},{"type":"error","name":"InvalidQuantity","inputs":[]},{"type":"error","name":"InvalidSettlementWindow","inputs":[]},{"type":"error","name":"MarketExists","inputs":[{"name":"marketId","type":"bytes32","internalType":"bytes32"}]},{"type":"error","name":"MarketExpired","inputs":[{"name":"marketId","type":"bytes32","internalType":"bytes32"}]},{"type":"error","name":"MarketNotExpired","inputs":[{"name":"marketId","type":"bytes32","internalType":"bytes32"}]},{"type":"error","name":"MarketNotFound","inputs":[{"name":"marketId","type":"bytes32","internalType":"bytes32"}]},{"type":"error","name":"MarketNotSettled","inputs":[{"name":"marketId","type":"bytes32","internalType":"bytes32"}]},{"type":"error","name":"NegativePrice","inputs":[{"name":"price","type":"int64","internalType":"int64"}]},{"type":"error","name":"NoLiquidity","inputs":[]},{"type":"error","name":"OrderNotFound","inputs":[{"name":"orderId","type":"uint256","internalType":"uint256"}]},{"type":"error","name":"OrderNotOwned","inputs":[{"name":"orderId","type":"uint256","internalType":"uint256"}]},{"type":"error","name":"ReentrancyGuardReentrantCall","inputs":[]},{"type":"error","name":"SafeERC20FailedOperation","inputs":[{"name":"token","type":"address","internalType":"address"}]},{"type":"error","name":"SelfTradeNotAllowed","inputs":[]},{"type":"error","name":"UnexpectedExponent","inputs":[{"name":"actual","type":"int32","internalType":"int32"},{"name":"expected","type":"int32","internalType":"int32"}]},{"type":"error","name":"UnknownTokenId","inputs":[{"name":"tokenId","type":"uint256","internalType":"uint256"}]},{"type":"error","name":"UnsupportedTicker","inputs":[{"name":"ticker","type":"bytes32","internalType":"bytes32"}]},{"type":"error","name":"WindowTooWide","inputs":[]},{"type":"error","name":"ZeroQuantity","inputs":[]}],"bytecode":{"object":"0x6080604052346101ee57604051601f61603a38819003918201601f19168301916001600160401b038311848410176101da578084926080946040528339810103126101ee5761004d816101f2565b9061005a602082016101f2565b6060610068604084016101f2565b9201519061ffff8216938483036101ee5760405160208101906001600160401b038211818310176101da575f9160405252600254600181811c911680156101d0575b60208210146101bc57601f8111610189575b505f60025560017f9b779b17422d0df92223018b32b4d1fa46e071723d6817e2486d003becc55f00556006549460c88111610177575060048054610100600160a81b03191660089290921b610100600160a81b0316919091179055600580546001600160a01b0319166001600160a01b03928316179055919091166001600160c01b03199092169190911760a09190911b61ffff60a01b1617601960b21b1760065561016733610206565b50604051615d8a90816102908239f35b638ea70c0760e01b5f5260045260245ffd5b80156100bc5760025f52601f60205f20910160051c905f5b8281106101af5750506100bc565b5f828201556001016101a1565b634e487b7160e01b5f52602260045260245ffd5b90607f16906100aa565b634e487b7160e01b5f52604160045260245ffd5b5f80fd5b51906001600160a01b03821682036101ee57565b6001600160a01b0381165f9081525f51602061601a5f395f51905f52602052604090205460ff1661028a576001600160a01b03165f8181525f51602061601a5f395f51905f5260205260408120805460ff191660011790553391907f2f8788117e7eff1d82e926ec794901d17c78024a50270940304540a733656f0d8180a4600190565b505f9056fe6080604052600436101561001a575b3615610018575f80fd5b005b5f3560e01c8062fdd58e146103fe57806301909247146103f957806301ffc9a7146103f45780630e89341c146103ef57806310df63c1146103ea5780631d4b41d0146103e55780631ea8aaf3146103e057806323188024146103db578063248a9ca3146103d657806324a9d853146103d15780632a1ce312146103cc5780632ab6c03c146103c75780632eb2c2d6146103c25780632f2ff15d146103bd578063333c8403146103b857806336568abe146103b35780633e413bee146103ae5780633f4ba83a146103a9578063404de361146103a45780634075b7bc1461039f57806343ce2fcc1461039a57806346904840146103955780634e1273f414610390578063514fcac71461038b5780635771f997146103865780635c975abb14610381578063605d80751461037c578063673da15414610377578063689a02db146103725780637445e85c1461036d5780637564912b14610368578063787508ea146103635780637adbf9731461035e5780637d05f4b4146103595780637e3d8085146103545780638456cb591461034f5780638c794edd1461034a5780638e0055531461034557806391d14854146103405780639621472e1461033b578063972a94d6146102ff578063a07b225714610336578063a217fddf14610331578063a22cb4651461032c578063af73823b14610327578063b886a75814610322578063ba95b0181461031d578063bc197c8114610318578063bedfad1914610313578063cf549c8a1461030e578063d547741f14610309578063d55be8c614610304578063e6e9e149146102dc578063e73d073a146102ff578063e74b981b146102fa578063e985e9c5146102f5578063ec979082146102f0578063f23a6e61146102eb578063f242432a146102e6578063f5b541a6146102e1578063f956c6dd146102dc578063f98d06f0146102d75763fd759aeb0361000e57612aec565b612ac0565b6128f5565b612a99565b612a3c565b6129e6565b6129c9565b612985565b612911565b612151565b6128da565b6128a9565b61287f565b612757565b6126bf565b612603565b6125c1565b61258c565b6124d3565b6124b9565b612172565b6120f3565b6120b4565b612026565b611ff7565b611f9e565b611f75565b611d41565b611cea565b611c4d565b611b73565b611b4c565b611a51565b61181b565b6114ce565b6114ac565b611478565b61140f565b611350565b6112e4565b61125e565b6111fa565b6111ab565b611134565b61110c565b6110c8565b611000565b610fbe565b610f32565b610d6a565b610d12565b610cee565b610cc8565b610c8b565b610b31565b610799565b61070d565b6105d3565b6104fd565b6104c1565b610453565b6001600160a01b031690565b600435906001600160a01b038216820361042557565b5f80fd5b602435906001600160a01b038216820361042557565b35906001600160a01b038216820361042557565b3461042557604036600319011261042557602061048261047161040f565b6024355f525f835260405f20612b16565b54604051908152f35b5f52600960205260405f2090565b5f52600d60205260405f2090565b5f525f60205260405f2090565b905f5260205260405f2090565b34610425576020366003190112610425576004355f526007602052602060405f2054604051908152f35b6001600160e01b031981160361042557565b346104255760203660031901126104255760043561051a816104eb565b63ffffffff60e01b16637965db0b60e01b811490811561055b575b811561054a575b506040519015158152602090f35b630271189760e51b1490505f61053c565b9050636cdb3d1360e11b8114801561058b575b801561057b575b90610535565b506301ffc9a760e01b8114610575565b506303a24d0760e21b811461056e565b805180835260209291819084018484015e5f828201840152601f01601f1916010190565b9060206105d092818152019061059b565b90565b3461042557602036600319011261042557600435805f52600b60205260405f205480156106fa576106af6106aa6106b4926106c0945f52600c6020526106a461062360ff60405f2054169261048b565b61062d8154614dda565b9261064461063f600184015460070b90565b614e52565b9161066261065d6106586003840154610ff4565b610ff4565b614ef2565b91156106ea576006610672613451565b915b015491601083901c60ff1692836106c4575061068e6134bd565b935b61069e828289818782615046565b96615132565b906134e2565b61532e565b612b54565b604051918291826105bf565b0390f35b60181c60ff16156106dd576106d7613497565b93610690565b6106e5613472565b6106d7565b60066106f4613431565b91610674565b50631af0266d60e21b5f5260045260245ffd5b34610425576020366003190112610425576020600435604051908152f35b6001600160801b031690565b602435906001600160801b038216820361042557565b604435906001600160801b038216820361042557565b606435906001600160801b038216820361042557565b6064359060ff8216820361042557565b6044359060ff8216820361042557565b34610425576080366003190112610425576004356107b5610737565b906107be61074d565b906107c7610779565b916107d061351d565b6107d8613538565b6107e18261048b565b926107ef6003850154610ff4565b6001600160401b03811615610b125761080790610ff4565b421015610afe576001600160801b038516908115610aef576108b38260046108316108c495612bb4565b9761084a89610841600554610403565b30903390613583565b61085960058201998a54612c32565b895501610867828254612c32565b9055604051602081019061088d8161087f8a85612c3f565b03601f198101835282610e09565b519020906108a461089c612c61565b828930613612565b6108ac612c61565b9133613612565b3390866108bf86610499565b6137d2565b9160608301916108d4835161072b565b6001600160801b0382811690821610610acd5750506020830151919460ff909216915f5b60ff811684811015610a3e5760ff91610a35610a2e610a2989610a23610a1d606061097789610a038e8761092f60019e8251612c75565b5151825f516020615c955f395f51905f5261095f6020610950898751612c75565b5101516001600160a01b031690565b61099660406109878a6109808e610977838c51612c75565b51015160ff1690565b9851612c75565b5101516001600160801b031690565b604080513381526001602082015260ff97909716908701526001600160801b031660608601526001600160a01b031693608090a46109da6020610950858b51612c75565b906109f36109ee6040610987878d51612c75565b61072b565b906109fc612c61565b9230613afc565b610a166109ee6040610987848a51612c75565b9551612c75565b60ff1690565b90612c03565b612bd3565b8954612c86565b885501166108f8565b505083610a848692610a6a610a59610a296109ee8c5161072b565b33610a65600554610403565b613c2b565b610a7e604060018060801b0394015161072b565b90612c93565b169182610a94575b610018613570565b82610aa6610ac594610aab9330613c81565b612bb4565b90610ab7828254612c86565b905533610a65600554610403565b808080610a8c565b630e34d4c560e11b5f526001600160801b039081166004521660245260445b5ffd5b63f4f5b73360e01b5f5260045ffd5b63291561fb60e11b5f52600483905260245ffd5b638edfb9e960e01b5f52600484905260245ffd5b8060070b0361042557565b3461042557604036600319011261042557602435600435610b5182610b26565b610b59613d8c565b610b628161048b565b91610b706003840154610ff4565b6001600160401b03811615610c46576006840190610b93825460ff9060101c1690565b610c3257610658610ba391612cac565b4210610c1e57610c07610be5610bdf60017f75db0622e15103635f1cc53353a7e715f4b71125b33ea33f93e451c23427484a9697015460070b90565b60070b90565b8360070b121582610c0282946201000062ff000019825416179055565b612cc5565b60408051911515825260079290920b6020820152a2005b637294095160e11b5f52600483905260245ffd5b6358cb522560e11b5f52600484905260245ffd5b638edfb9e960e01b5f52600483905260245ffd5b634e487b7160e01b5f52603260045260245ffd5b600a54811015610c8657600a5f5260205f2001905f90565b610c5a565b3461042557602036600319011261042557600435600a5481101561042557600a5f525f516020615c755f395f51905f520154604051908152602090f35b34610425576020366003190112610425576020610ce6600435612ce1565b604051908152f35b34610425575f36600319011261042557602061ffff60065460a01c16604051908152f35b34610425576020366003190112610425576004355f526011602052602060ff60405f205416604051908152f35b60021115610d4957565b634e487b7160e01b5f52602160045260245ffd5b906002821015610d495752565b34610425576020366003190112610425576004355f526010602052602060ff60405f205416610d9c6040518092610d5d565bf35b634e487b7160e01b5f52604160045260245ffd5b61010081019081106001600160401b03821117610dce57604052565b610d9e565b608081019081106001600160401b03821117610dce57604052565b606081019081106001600160401b03821117610dce57604052565b601f909101601f19168101906001600160401b03821190821017610dce57604052565b60405190610e3c61010083610e09565b565b60405190610e3c60c083610e09565b60405190610e3c61012083610e09565b6001600160401b038111610dce5760051b60200190565b9080601f83011215610425578135610e8b81610e5d565b92610e996040519485610e09565b81845260208085019260051b82010192831161042557602001905b828210610ec15750505090565b8135815260209182019101610eb4565b6001600160401b038111610dce57601f01601f191660200190565b81601f8201121561042557803590610f0382610ed1565b92610f116040519485610e09565b8284526020838301011161042557815f926020809301838601378301015290565b346104255760a036600319011261042557610f4b61040f565b610f53610429565b906044356001600160401b03811161042557610f73903690600401610e74565b6064356001600160401b03811161042557610f92903690600401610e74565b608435939091906001600160401b03851161042557610fb8610018953690600401610eec565b93612cf3565b3461042557604036600319011261042557610018600435610fdd610429565b90610fef610fea82612ce1565b613ebc565b613f4d565b6001600160401b031690565b346104255760203660031901126104255761101c600435612f02565b6040518091602082016020835281518091526020604084019201905f5b818110611047575050500390f35b9193509160206101006001926110ba60e08851805184528581015186850152604081015160070b6040850152868060401b0360608201511660608501526080810151151560808501526110a360a082015160a086019015159052565b60c08181015190850152015161ffff1660e0830152565b019401910191849392611039565b34610425576040366003190112610425576004356110e4610429565b336001600160a01b038216036110fd5761001891613fc5565b63334bd91960e11b5f5260045ffd5b34610425575f366003190112610425576005546040516001600160a01b039091168152602090f35b34610425575f3660031901126104255761114c613d8c565b60045460ff81161561118b5760ff19166004557f5db9ee0a495bf2e6ff9c91a7834c1ba4fdd244a5e8aa4e537bd38aeae4b073aa6020604051338152a1005b638dfc202b60e01b5f5260045ffd5b6001600160a01b0316600452602490565b34610425576020366003190112610425576004355f52600f602052602060018060a01b0360405f205416604051908152f35b60209060031901126104255760043561ffff811681036104255790565b3461042557611208366111dd565b611210613d8c565b6006805461ffff60b01b191660b09290921b61ffff60b01b16919091179055005b60443590811515820361042557565b60843590811515820361042557565b60243590811515820361042557565b34610425576060366003190112610425576004357f4c4ac9ecaca82deed7fdc8387cb1051848503f1e09c14a2374386da8cc2cd42660406024356112a0611231565b6112a8613d8c565b845f5260086020526112c881845f209060ff801983541691151516179055565b845f52600760205281835f2055825191825215156020820152a2005b34610425575f366003190112610425576006546040516001600160a01b039091168152602090f35b90602080835192838152019201905f5b8181106113295750505090565b825184526020938401939092019160010161131c565b9060206105d092818152019061130c565b34610425576040366003190112610425576004356001600160401b03811161042557366023820112156104255780600401359061138c82610e5d565b9161139a6040519384610e09565b8083526024602084019160051b8301019136831161042557602401905b8282106113f757836024356001600160401b038111610425576106c0916113e56113eb923690600401610e74565b9061305a565b6040519182918261133f565b602080916114048461043f565b8152019101906113b7565b346104255760203660031901126104255760043561142b613538565b5f818152600f60205260409020546001600160a01b0316330361146657611453903390614035565b60015f516020615cf55f395f51905f5255005b6312e9e14760e11b5f5260045260245ffd5b34610425576020366003190112610425576004355f52600d60205260206114a160405f206140ef565b60ff60405191168152f35b34610425575f36600319011261042557602060ff600454166040519015158152f35b34610425576080366003190112610425576004356114ea610737565b6114f2610789565b6114fa610779565b9161150361351d565b61150b613538565b6115148461048b565b936115226003860154610ff4565b6001600160401b038116156118075761153a90610ff4565b4210156117f5576001600160801b0382168015610aef57610a2961158f9160ff60405160208101906115708161087f8985612c3f565b5190209661158861157f612c61565b848a3033613afc565b1690612c03565b926115a68430336115a1600554610403565b613583565b6115cc60058701956115b9868854612c32565b87553390856115c786610499565b6139be565b925f9660208501975b6115e3610a1d8a5160ff1690565b60ff8216908110156116de5760ff60016115e3936116d26109506116cb868d8d611611610a1d9a8351612c75565b5151905f516020615c955f395f51905f526116326020610950878751612c75565b61164b6040610987886109806060610977838c51612c75565b604080513381525f602082015260ff97909716908701526001600160801b0316606086015260a08b901b8b90031693608090a48d6116c560206116b0610a2961169d6109ee6040610987898951612c75565b610a23610a1d60606109778a8a51612c75565b9586946116be600554610403565b9451612c75565b90613c2b565b8d54612c86565b8c5501169150506115d5565b50508693604061173b949661170689611700610a296109ee606086015161072b565b90612c86565b806117d2575b50019461171c6109ee875161072b565b9283611765575b505093516001600160801b039450610a7e915061072b565b16908161174a57610018613570565b61175e91611756612c61565b913330613afc565b8080610a8c565b6117896117746117c995612bb4565b936117826109ee8a5161072b565b9030613c81565b6117a06117996109ee895161072b565b8930613c81565b6117bc60046117b26109ee8a5161072b565b9201918254612c86565b9055610ab7828254612c86565b84808080611723565b806117e16117ef928a54612c86565b895533610a65600554610403565b8861170c565b63291561fb60e11b5f5260045260245ffd5b638edfb9e960e01b5f52600482905260245ffd5b346104255760403660031901126104255760243560043561183a613538565b6118438161048b565b60068101805460ff601082901c161561185b565b1590565b611a3d578415610aef57604051602081019061187b8161087f8885612c3f565b51902090856118923361188d886104a7565b612b16565b5410156118b3876118a63361188d876104a7565b5410159260181c60ff1690565b156119ec571561198557505f516020615cb55f395f51905f52926118f892600192506118e187875b33613c81565b5f92611903575b5050604051918291339683613049565b0390a3610018613570565b61197e91925061193c61193461192e61192761191e8b612bb4565b945461ffff1690565b61ffff1690565b83612c03565b612710900490565b90611956600561194c8484612c86565b9501918254612c86565b90556119688333610a65600554610403565b611973600554610403565b6116c5600654610403565b5f806118e8565b909190156119ac575f516020615cb55f395f51905f52926118f892916118e1875f946118db565b60405162461bcd60e51b8152602060048201526013602482015272496e73756666696369656e7420746f6b656e7360681b604482015280606481015b0390fd5b9293929015611a175750916118f8915f516020615cb55f395f51905f5293916118e1876001946118db565b1590506119ac575f516020615cb55f395f51905f52916118f8915f916118e187876118db565b6303bc8d8d60e51b5f52600484905260245ffd5b3461042557606036600319011261042557600435611a6d610737565b90611a76610789565b91611a7f61351d565b611a87613538565b611a908261048b565b92611a9e6003850154610ff4565b6001600160401b03811615610b1257611ab690610ff4565b421015610afe576001600160801b038216938415610aef57846004611b3c92611ae1611b4398612bb4565b611af081610841600554610403565b611aff60058301918254612c32565b905501611b0d828254612c32565b90556040516020810190611b258161087f8985612c3f565b519020906108a4611b34612c61565b828830613612565b339261417e565b50610018613570565b34610425575f3660031901126104255760206040515f516020615d355f395f51905f528152f35b34610425576020366003190112610425576004355f90815260096020908152604091829020805460018201546002830154600384015460048501546005860154600690960154885195865260079490940b96850196909652958301526001600160401b039094166060820152608081019290925260a082015261ffff821660c082015260ff601083901c8116151560e083015260189290921c909116151561010082015261012090f35b9181601f84011215610425578235916001600160401b038311610425576020808501948460051b01011161042557565b34610425576020366003190112610425576004356001600160401b03811161042557611c7d903690600401611c1d565b611c85613538565b5f5b818110611ca15760015f516020615cf55f395f51905f5255005b80611caf600192848661310d565b355f52600f60205233828060a01b0360405f20541603611ce557611cdf611cd782858761310d565b353390614035565b01611c87565b611cdf565b3461042557602036600319011261042557611d0361040f565b611d0b613d8c565b60048054610100600160a81b03191660089290921b610100600160a81b0316919091179055005b60243590600282101561042557565b346104255760a036600319011261042557600435611d5d611d32565b611d65610789565b611d6d610763565b92611d76611240565b91611d7f61351d565b611d87613538565b5f92611d928361048b565b611d9f6003820154610ff4565b6001600160401b03811615611f6157611db790610ff4565b421015611f4d576001600160801b0387168015610aef5760a0611e5a91611e326106c09a611de48b610d3f565b8a15928315611f3357610a29611dfe9160ff8b1690612c03565b611e0d81610841600554610403565b611e1c60058801918254612c32565b90555b611e2889610499565b90888c33936144b1565b90611e3f33838c8b614729565b611e488a610d3f565b80611f1b575b611eb5575b015161072b565b916001600160801b038316611e84575b8786611e74613570565b6040519081529081906020820190565b15611ea15794611e96949533946148d7565b805f80808080611e6a565b50919250611eb0933393614334565b611e96565b611ed5610a29611ecb6109ee604085015161072b565b60ff891690612c03565b611ee8610a296109ee606085015161072b565b90818111611ef8575b5050611e53565b611f1491611f0591612c86565b60058601610ab7828254612c86565b5f80611ef1565b50611f2c6109ee604083015161072b565b1515611e4e565b611f4890611f3f612c61565b908b3033613afc565b611e1f565b63291561fb60e11b5f52600484905260245ffd5b638edfb9e960e01b5f52600485905260245ffd5b34610425576020366003190112610425576004355f52600d60205260206114a160405f2061494d565b34610425575f36600319011261042557611fb6613d8c565b611fbe61351d565b600160ff1960045416176004557f62e78cea01bee320cd4e420270b5ea74000d11b0c9f74754ebdbfc544b05a2586020604051338152a1005b34610425576020366003190112610425576004355f52600c602052602060ff60405f2054166040519015158152f35b3461042557612034366111dd565b61203c613d8c565b61ffff81169060c882116120a1577f2e7c4279000925b8ff0bca0e7109cbc47fc6f6c4edfb831ffe7466cf0af07fa060406006549381519061ffff8660a01c1682526020820152a161ffff60a01b1990911660a09190911b61ffff60a01b1617600655005b50638ea70c0760e01b5f5260045260245ffd5b3461042557604036600319011261042557602060ff6120e76004356120d7610429565b905f526003845260405f20612b16565b54166040519015158152f35b34610425575f36600319011261042557602061ffff60065460b01c16604051908152f35b6001600160401b0381160361042557565b6060906003190112610425576004359060243561214481610b26565b906044356105d081612117565b34610425576020610ce661216436612128565b9161216d613de0565b614ab9565b6080366003190112610425576004356024356001600160401b038111610425576121a0903690600401611c1d565b604492919235906121b082612117565b606435906121bd82612117565b6121c5613e4e565b6121cd613538565b6121d68461048b565b916121e46003840154610ff4565b916001600160401b038316156124a5576006840192612208845460ff9060101c1690565b6124915761221590610ff4565b80421061247d576001600160401b038616811090811561246a575b5061245b576103846001600160401b0361224a878561311d565b161161244c576004546122689060081c6001600160a01b0316610403565b906040519763d47eed4560e01b8952602089806122898585600484016131e9565b0381865afa98891561240e575f99612413575b5090885f9493926122db6122ae613205565b9560028a01546122bd88612ee1565b52604051634716e9c560e01b81529a8b97889687956004870161333a565b03925af191821561240e577f1a68deef50ff685ff1d5949a4acdb6d648a3e4fb36b782583db14a9cb570adfd935f936123e2575b5061234361235a916123336001602061232788612ee1565b51015192015460070b90565b60065460b01c61ffff1691614cb2565b825462ff0000191662010000178355918290612cc5565b6123a86060602061238161237b8261237188612ee1565b5101515160070b90565b95612ee1565b51015101516040519384938460409194939260608201951515825260070b60208201520152565b0390a28034116123ba57610018613570565b5f8080806123cb6123dc9534612c86565b335af16123d66133a3565b506133d2565b5f610a8c565b61235a919350612406612343913d805f833e6123fe8183610e09565b810190613280565b93915061230f565b6131fa565b5f94939291995061243b9060203d602011612445575b6124338183610e09565b810190613136565b989091929361229c565b503d612429565b6380ed59c360e01b5f5260045ffd5b633432315160e21b5f5260045ffd5b6001600160401b0384161090505f612230565b637294095160e11b5f52600487905260245ffd5b6358cb522560e11b5f52600487905260245ffd5b638edfb9e960e01b5f52600486905260245ffd5b34610425575f3660031901126104255760206040515f8152f35b34610425576040366003190112610425576124ec61040f565b6124f461124f565b3315612579576001600160a01b038216918215612567578161252461253592335f52600160205260405f20612b16565b9060ff801983541691151516179055565b604051901515815233907f17307eab39ab6107e8899845ad3d59bd9653f200f220920489ca2b5937696c3190602090a3005b62ced3e160e81b5f525f60045260245ffd5b631f18c42760e11b5f525f60045260245ffd5b346104255760203660031901126104255760206004356040516125b68161087f8582019485612c3f565b519020604051908152f35b34610425576020366003190112610425576004355f526008602052602060ff60405f2054166040519015158152f35b6001600160801b03909116815260200190565b346104255760603660031901126104255760043561261f611d32565b90612628610789565b905f52600d60205260405f20906002831015610d49576106c0926126765761266261266a92600161265b81600295615484565b910161379f565b50015461072b565b604051918291826125f0565b61266261268d9261012a61265b6001600295615484565b61266a565b9181601f84011215610425578235916001600160401b038311610425576020838186019501011161042557565b346104255760a0366003190112610425576126d861040f565b506126e1610429565b506044356001600160401b03811161042557612701903690600401611c1d565b50506064356001600160401b03811161042557612722903690600401611c1d565b50506084356001600160401b03811161042557612743903690600401612692565b505060405163bc197c8160e01b8152602090f35b3461042557604036600319011261042557600435612773610737565b9061277c61351d565b612784613538565b61278d8161048b565b61279a6003820154610ff4565b6001600160401b03811615610c46576127b290610ff4565b42101561286b576001600160801b0383168015610aef57600461283b926127d883612bb4565b6127e781610841600554610403565b6127f660058301918254612c32565b905501612804828254612c32565b9055612819612811612c61565b828533613612565b604051602081019061282f8161087f8785612c3f565b519020906108ac612c61565b7f443a7a221ba2becab08e26f328e7eb65cba076581777457f894a819cf0dfd2e3604051806118f83395826125f0565b63291561fb60e11b5f52600482905260245ffd5b34610425576020366003190112610425576004355f52600e602052602060405f2054604051908152f35b34610425576040366003190112610425576100186004356128c8610429565b906128d5610fea82612ce1565b613fc5565b34610425575f36600319011261042557602060405160c88152f35b34610425575f3660031901126104255760206040516103848152f35b346104255760203660031901126104255761292a61040f565b612932613d8c565b600654604080516001600160a01b03808416825290931660208401819052927faaebcf1bfa00580e41d966056b48521fa9f202645c86d4ddf28113e617c1b1d39190a16001600160a01b03191617600655005b3461042557604036600319011261042557602060ff6120e76129a561040f565b6129ad610429565b6001600160a01b039091165f9081526001855260409020612b16565b34610425575f366003190112610425576020600a54604051908152f35b346104255760a0366003190112610425576129ff61040f565b50612a08610429565b506084356001600160401b03811161042557612a28903690600401612692565b505060405163f23a6e6160e01b8152602090f35b346104255760a036600319011261042557612a5561040f565b612a5d610429565b608435919060643590604435906001600160401b03851161042557612a89610018953690600401610eec565b93612a948133613ef3565b613afc565b34610425575f3660031901126104255760206040515f516020615cd55f395f51905f528152f35b34610425575f3660031901126104255760045460405160089190911c6001600160a01b03168152602090f35b34610425576020366003190112610425576004355f52600b602052602060405f2054604051908152f35b9060018060a01b03165f5260205260405f2090565b612b3e915f525f60205260405f20612b16565b5490565b805191908290602001825e015f815290565b90610e3c612b92926040519384917f646174613a6170706c69636174696f6e2f6a736f6e3b6261736536342c0000006020840152603d830190612b42565b03601f198101845283610e09565b634e487b7160e01b5f52601160045260245ffd5b90620f4240820291808304620f42401490151715612bce57565b612ba0565b906127108202918083046127101490151715612bce57565b600281901b91906001600160fe1b03811603612bce57565b81810292918115918404141715612bce57565b9060018201809211612bce57565b9060028201809211612bce57565b91908201809211612bce57565b60809181526040602082015260026040820152614e4f60f01b60608201520190565b60405190612c70602083610e09565b5f8252565b906064811015610c865760051b0190565b91908203918211612bce57565b6001600160801b039182169082160391908211612bce57565b6001600160401b039081166103840191908211612bce57565b9063ff000000825491151560181b169063ff0000001916179055565b5f526003602052600160405f20015490565b92919094612d018433613ef3565b6001600160a01b038616948515612e4f576001600160a01b038516958615612e3d578351855190818103612e285750505f5b8451811015612db8578060051b6020808288010151918801015190612d5b8961188d836104a7565b54828110612d9957612d898c61188d85948d612d8360019998612d9197039161188d846104a7565b556104a7565b918254612c32565b905501612d33565b896119e883856040519485946303dee4c560e01b8652600486016158ff565b50610e3c9697929795919560018551145f14612e015760208501515f516020615c555f395f51905f52612df76020890151604051918291339583613049565b0390a45b33615ace565b6040515f516020615c355f395f51905f52339180612e208a8a83615923565b0390a4612dfb565b635b05999160e01b5f5260045260245260445ffd5b626a0d4560e21b5f525f60045260245ffd5b632bfa23e760e11b5f525f60045260245ffd5b90612e6c82610e5d565b612e796040519182610e09565b8281528092612e8a601f1991610e5d565b01905f5b828110612e9a57505050565b602090604051612ea981610db2565b5f81525f838201525f60408201525f60608201525f60808201525f60a08201525f60c08201525f60e082015282828501015201612e8e565b805115610c865760200190565b8051821015610c865760209160051b010190565b90600a549182158015613041575b61303a578281101561302f57612f27908093612c86565b91612f3181612e62565b925f5b828110612f4057505050565b80612f62612f58612f5360019486612c32565b610c6e565b90549060031b1c90565b613013612f6e8261048b565b805490613003612f818783015460070b90565b91612ffa612f926003830154610ff4565b93612ff1600684015495612fe1612fad8860ff9060101c1690565b93612fc6600560188b901c60ff169801549961ffff1690565b99612fcf610e2c565b9c8d5260208d015260070b60408c0152565b6001600160401b031660608a0152565b15156080880152565b151560a0860152565b60c084015261ffff1660e0830152565b61301d8288612eee565b526130288187612eee565b5001612f34565b50612f278280612c86565b5060609150565b508015612f10565b908152602081019190915260400190565b919091805183518082036130da57505080519061307682610e5d565b916130846040519384610e09565b808352613093601f1991610e5d565b013660208401375f5b81518110156130d357806130c260019260051b6020808287010151918901015190612b2b565b6130cc8286612eee565b520161309c565b5090925050565b635b05999160e01b5f5260045260245260445ffd5b81156130f9570490565b634e487b7160e01b5f52601260045260245ffd5b9190811015610c865760051b0190565b6001600160401b039182169082160391908211612bce57565b90816020910312610425575190565b908060209392818452848401375f828201840152601f01601f1916010190565b90602083828152019060208160051b85010193835f915b83831061318c5750505050505090565b909192939495601f198282030186528635601e1984360301811215610425578301602081019190356001600160401b038111610425578036038313610425576131db6020928392600195613145565b98019601949301919061317c565b9160206105d0938181520191613165565b6040513d5f823e3d90fd5b604080519091906132168382610e09565b6001815291601f1901366020840137565b91908260809103126104255760405161323f81610dd3565b8092805161324c81610b26565b8252602081015161325c81612117565b602083015260408101518060030b8103610425576040830152606090810151910152565b602081830312610425578051906001600160401b038211610425570181601f82011215610425578051906132b382610e5d565b926132c16040519485610e09565b828452602061012081860194028301019181831161042557602001925b8284106132ec575050505090565b610120848303126104255760206101209160405161330981610dee565b8651815261331985848901613227565b8382015261332a8560a08901613227565b60408201528152019301926132de565b93959492919061335291608086526080860191613165565b8381036020850152602080835192838152019201905f5b81811061338d575050506001600160401b0394851660408401529316606090910152565b8251845260209384019390920191600101613369565b3d156133cd573d906133b482610ed1565b916133c26040519384610e09565b82523d5f602084013e565b606090565b156133d957565b60405162461bcd60e51b8152602060048201526011602482015270115512081c99599d5b990819985a5b1959607a1b6044820152606490fd5b80546001600160a01b0319166001600160a01b03909216919091179055565b60405190613440604083610e09565b60028252614e4f60f01b6020830152565b60405190613460604083610e09565b600382526259455360e81b6020830152565b60405190613481604083610e09565b60078252664e4f2057494e5360c81b6020830152565b604051906134a6604083610e09565b60088252675945532057494e5360c01b6020830152565b604051906134cc604083610e09565b600782526650656e64696e6760c81b6020830152565b6002610e3c9161350661350095946040519687936020850190612b42565b90612b42565b615d7d60f01b815203601d19810185520183610e09565b60ff6004541661352957565b63d93c066560e01b5f5260045ffd5b60025f516020615cf55f395f51905f5254146135615760025f516020615cf55f395f51905f5255565b633ee5aeb560e01b5f5260045ffd5b60015f516020615cf55f395f51905f5255565b6040516323b872dd60e01b5f9081526001600160a01b039384166004529290931660245260449390935260209060648180865af160015f51148116156135f3575b6040919091525f606052155b6135d75750565b635274afe760e01b5f52610aec906001600160a01b031661119a565b6001811516613609573d15833b151516166135c4565b503d5f823e3d90fd5b92936001600160a01b0384169390929091908415612e4f576136339161544d565b9290948551845190818103612e285750505f5b865181101561367c578087613674612d898761188d60208060019860051b8097010151958c010151946104a7565b905501613646565b5092909460208091610e3c9660018251145f146136cc575f838301515f516020615c555f395f51905f526136bb86890151604051918291339583613049565b0390a45b0151910151915f33615996565b5f6040515f516020615c355f395f51905f523391806136ec8a8883615923565b0390a46136bf565b6040519061370182610dd3565b5f6060838281528260208201528260408201520152565b6040519060e082016001600160401b03811183821017610dce5760405281610c80604051906137478183610e09565b5f5b81811061377b5750508160c0915f93528260208201528260408201528260608201528260808201528260a08201520152565b6020906137866136f4565b8185015201613749565b60ff168015612bce575f190190565b906063811015610c865760030201905f90565b60ff1660ff8114612bce5760010190565b6001600160801b039091169052565b92909391936137df613718565b94606460ff821611156139b6575060649391905b916137fe6001610d3f565b6001946063865b613878575b50505050613839919250806138256118579260a087016137c3565b6001600160801b03161560c0850181905290565b80613871575b8061385a575b61384b57565b636180f03f60e11b5f5260045ffd5b5061386b6109ee604084015161072b565b15613845565b505f61383f565b60ff811687811015806139a4575b80613991575b1561398b57876138a761389f8285615484565b82870161379f565b508054915b6138d4575b505087146138cf57906138c687949392613790565b90919293613805565b61380a565b919493819793999691151580613979575b80613966575b156139585761390a6138fd89876104b4565b546001600160a01b031690565b6001600160a01b03838116911614613949576139398b8b89968660036139308e8c6104b4565b01549c8a6154ec565b97939993919695929094956138ac565b630765128d60e31b5f5260045ffd5b9394918196999397506138b1565b5060208b015160ff8281169116106138eb565b506001600160801b03841615156138e5565b5061380a565b50602089015160ff84811691161061388c565b506001600160801b0386161515613886565b9391906137f3565b9390926139c9613718565b92606460ff82161115613af357506064939190915b6139e75f610d3f565b6001925b606360ff8516111580613ae1575b80613ace575b15613ab257613a1c613a12600186615484565b61012a890161379f565b50918254905b81151580613aa0575b80613a8d575b15613a7657613a436138fd838b6104b4565b6001600160a01b03848116911614613949578686613a7192866003613a68878f6104b4565b0154958d6154ec565b613a22565b93949050613a859192506137b2565b9291906139eb565b50602087015160ff898116911610613a31565b506001600160801b0381161515613a2b565b5090935061383992945061185791506138258160a087016137c3565b50602085015160ff8781169116106139ff565b506001600160801b03821615156139f9565b939190916139de565b909390916001600160a01b038516908115612e4f576001600160a01b038416948515612e3d57613b2b9161544d565b9290918251845190818103612e285750505f5b8351811015613bb5578060051b6020808287010151918701015190613b668861188d836104a7565b54828110613b9657612d898b61188d85948c612d8360019998613b8e97039161188d846104a7565b905501613b3e565b886119e883856040519485946303dee4c560e01b8652600486016158ff565b50610e3c96926020929691839260018351145f14613c0457838301515f516020615c555f395f51905f52613bf4868a0151604051918291339583613049565b0390a45b01519201519233615996565b6040515f516020615c355f395f51905f52339180613c238b8883615923565b0390a4613bf8565b916040519163a9059cbb60e01b5f5260018060a01b031660045260245260205f60448180865af160015f5114811615613c6b575b604091909152156135d0565b6001811516613609573d15833b15151616613c5f565b926001600160a01b038416929091908315612e3d57613c9f9161544d565b91906020915f604051613cb28582610e09565b528151845190818103612e285750505f5b8251811015613d2b578060051b848082860101519187010151613ce98961188d846104a7565b54818110613d0c578961188d6001959493613d059303936104a7565b5501613cc3565b896119e884846040519485946303dee4c560e01b8652600486016158ff565b50945090915f939260018351148514613d6b5780613d66915f516020615c555f395f51905f5293940151930151604051918291339583613049565b0390a4565b50613d665f516020615c355f395f51905f5291604051918291339583615923565b5f8052600360205260ff613dc0337f3617319a054d772f909f7c479a2cebe5066e836a939412e32403c99029b92eff612b16565b541615613dc957565b63e2517d3f60e01b5f52336004525f60245260445ffd5b5f516020615cd55f395f51905f525f52600360205260ff613e21337fc03103fc9c0ad7e4001ede1c469953fc46455d111e3d6da3b661469b87ece8d5612b16565b541615613e2a57565b63e2517d3f60e01b5f52336004525f516020615cd55f395f51905f5260245260445ffd5b5f516020615d355f395f51905f525f52600360205260ff613e8f337fce8f7da8588c3839766480da806b8a6530cac86f35d5448a80ebe069e551d1f4612b16565b541615613e9857565b63e2517d3f60e01b5f52336004525f516020615d355f395f51905f5260245260445ffd5b805f52600360205260ff613ed33360405f20612b16565b541615613edd5750565b63e2517d3f60e01b5f523360045260245260445ffd5b6001600160a01b0391821691811690828214159081613f2b575b50613f16575050565b63711bec9160e11b5f5260045260245260445ffd5b60ff9150613f4490845f52600160205260405f20612b16565b5416155f613f0d565b805f52600360205260ff613f648360405f20612b16565b5416613fbf57805f526003602052613f7f8260405f20612b16565b805460ff1916600117905533916001600160a01b0316907f2f8788117e7eff1d82e926ec794901d17c78024a50270940304540a733656f0d5f80a4600190565b50505f90565b805f52600360205260ff613fdc8360405f20612b16565b541615613fbf57805f526003602052613ff88260405f20612b16565b805460ff1916905533916001600160a01b0316907ff6391f5c32d9c69d2a47ea670b442974b53935d1edc7fd64eb21e047a839171b5f80a4600190565b805f52600e60205260405f2054815f5260106020527fbec2ab812bb4b1e2d6778994454ad972ea70eb88cf5429d85ec5d4c7a75c62af613d6660ff60405f20541694845f5260116020526140cd8160ff60405f20541661409487610499565b885f5260205260018060801b03600160405f2001541680996140be8a6140b98b610499565b61568c565b6140c78961048b565b896148d7565b6140d685615752565b6040516001600160a01b039091169590918291826125f0565b60635b60ff8116600181106141345761411361410a83615472565b6001850161379f565b505461412e57600114613fbf5761412990613790565b6140f2565b50905090565b5050505f90565b906002811015610d495760ff80198354169116179055565b919260ff604092959461416a856060810198610d5d565b1660208401526001600160801b0316910152565b939293919091805f52600d60205260405f209160ff841660018110908115614329575b50614313576001600160801b03811615614304575f516020615d155f395f51905f5290614278600261025386016141d88154612c16565b815554956142326141e7610e3e565b6001600160a01b038c16815261420086602083016137c3565b60ff8a16604082015261421760016060830161579a565b5f60808201525f60a082015261422d89846104b4565b6157a6565b61423c6001610d3f565b61425e8761425661424c8b615472565b61012a850161379f565b508093615bcf565b016142728361426d835461072b565b6154b4565b906154cd565b83968361428d865f52600e60205260405f2090565b556142a9816142a4875f52600f60205260405f2090565b613412565b6142c560016142c0875f52601060205260405f2090565b61413b565b6142ea866142db875f52601160205260405f2090565b9060ff1660ff19825416179055565b613d6660405192839260018060a01b031697600184614153565b63524f409b60e01b5f5260045ffd5b631d7812a760e01b5f5260ff841660045260245ffd5b60639150115f6141a1565b90929493815f52600d60205260405f209260ff8116600181109081156144a6575b50614491576001600160801b03871615614304575f516020615d155f395f51905f529161440d6002610253870161438c8154612c16565b815554966143e061439b610e3e565b6001600160a01b03861681526143b48d602083016137c3565b60ff871660408201526143ca8b6060830161579a565b5f60808201525f60a082015261422d8a846104b4565b6143e989610d3f565b88614481576143fe8861425661410a88615472565b016142728a61426d835461072b565b613d66859885614425885f52600e60205260405f2090565b5561443c836142a4895f52600f60205260405f2090565b614452886142c0895f52601060205260405f2090565b614468846142db895f52601160205260405f2090565b6040516001600160a01b03909316979293849384614153565b6143fe8861425661424c88615472565b631d7812a760e01b5f5260ff1660045260245ffd5b60639150115f614355565b946144ba613718565b93916144c581610d3f565b6145ef5790916001925b60ff821660ff85161115806145dd575b806145c3575b15614599576144f8613a12600186615484565b50918254915b82151580614587575b8061456d575b156145525761451f6138fd848b6104b4565b6001600160a01b0389811691161461394957868661454d92866003614544888f6104b4565b0154968d6154ec565b6144fe565b9392509360ff9150614563906137b2565b93919290506144cf565b50606460ff61458060208a015160ff1690565b161061450d565b506001600160801b0381161515614507565b9250509250610e3c9193505b6145b28160a086016137c3565b6001600160801b03161560c0840152565b50606460ff6145d6602088015160ff1690565b16106144e5565b506001600160801b03811615156144df565b929460019491926063865b61460e575b50505050610e3c9192506145a5565b60ff821660ff82168181101580614717575b806146fd575b156146f657886146416146398286615484565b82880161379f565b508054915b61466d575b505014614668579061465f87949392613790565b909192936145fa565b6145ff565b8198911515806146e4575b8c816146d0575b50156146c8576146926138fd8a896104b4565b6001600160a01b03898116911614613949576146c18c868d948460036146b88f8e6104b4565b01549d8c6154ec565b9891614646565b81985061464b565b60200151606460ff9091161090508c61467f565b506001600160801b0382161515614678565b50506145ff565b50606460ff61471060208d015160ff1690565b1610614626565b506001600160801b0387161515614620565b929192602084019460ff61473e875160ff1690565b16156148cf5761474d8261048b565b945f5b61475e610a1d895160ff1690565b60ff8216908110156148c45760ff600161475e938a614781610a1d958851612c75565b518a604082018d8c6147966109ee845161072b565b926147b0610a296060880195610a23610a1d885160ff1690565b948651946020880195845f516020615c955f395f51905f526147e66147d58a51610403565b946147df87610d3f565b5160ff1690565b936147f1875161072b565b604080516001600160a01b038c8116825260ff8a8116602084015298909816918101919091526001600160801b03919091166060820152941693608090a461483881610d3f565b61488b57846148799461485c6005956148819a956109f36109ee614870975161072b565b6116c56148698654610403565b9151610403565b01918254612c86565b905551615844565b0116915050614750565b846005936148b5614870936148bf9a956109f36109ee6148ae6148799b51610403565b935161072b565b610a658554610403565b614881565b505050945050505050565b945050505050565b9093916002811015610d495761492b5750610a2960059260ff61490393169060018060801b0316612c03565b9101918254828103908111612bce57909255600554610e3c92906001600160a01b0316613c2b565b9050610e3c9391925061493c612c61565b926001600160801b03169130613afc565b60015b606360ff821611156149625750505f90565b61497861496e82615472565b61012a840161379f565b505461498c57614987906137b2565b614950565b905090565b90614a7d6101006006610e3c94845181556149d76149b3602087015160070b90565b6001830180546001600160401b0319166001600160401b0392909216919091179055565b60408501516002820155614a146149f16060870151610ff4565b6003830180546001600160401b0319166001600160401b03909216919091179055565b6080850151600482015560a085015160058201550192614a4e614a3c60c083015161ffff1690565b855461ffff191661ffff909116178555565b614a76614a5e60e0830151151590565b855462ff0000191690151560101b62ff000016178555565b0151151590565b90612cc5565b600a54600160401b811015610dce5760018101600a55600a54811015610c8657600a5f525f516020615c755f395f51905f520155565b909291614adb611857614ad4845f52600860205260405f2090565b5460ff1690565b614c9e576040805160208101848152600787900b928201929092526001600160401b0383166060820152614b12816080810161087f565b519020936001600160401b03614b336003614b2c8861048b565b0154610ff4565b16614c8a5784917f124a2b0b0384b7455ace5c25664b94d4ad3f77adbe0440be9e42b0a8880e04ca91614bdd614b71865f52600760205260405f2090565b54600654614bc29060a01c61ffff16614b88610e4d565b898152600786900b60208201529260408401526001600160401b03861660608401525f6080840181905260a084015261ffff1660c0830152565b5f60e08201525f610100820152614bd88661048b565b614991565b83614c1c6040516020810190614bf78161087f8685612c3f565b51902082614c0d815f52600b60205260405f2090565b555f52600b60205260405f2090565b55614c3f614c32855f52600c60205260405f2090565b805460ff19166001179055565b614c4884614a83565b614c85614c5d865f52600760205260405f2090565b5460405193849384604091949392606082019560070b8252600180841b031660208201520152565b0390a3565b630239bcdb60e01b5f52600485905260245ffd5b6364eac3cd60e11b5f52600482905260245ffd5b9091614cc2604083015160030b90565b6004198160030b03614d7c5750815160070b5f811315614d675750614cee610658610ff4845160070b90565b60208301614d0b82614d06610a296106588551610ff4565b6130ef565b61ffff841610614d3057505050614d23905160070b90565b9060070b9060070b121590565b610aec9350614d3f9051610ff4565b63559c565760e01b5f526001600160401b039081166004521660245261ffff16604452606490565b633fb39c1560e21b5f5260070b60045260245ffd5b6317c59a0960e01b5f5260030b60045260041960245260445ffd5b90614da182610ed1565b614dae6040519182610e09565b8281528092614dbf601f1991610ed1565b0190602036910137565b908151811015610c86570160200190565b5f905f5b60208110614e205750614df082614d97565b915f5b818110614e005750505090565b6020811015610c865780836001921a614e198287614dc9565b5301614df3565b81811a60f81b6001600160f81b031916614e3d575b600101614dde565b91506001614e4a83612c16565b929050614e35565b5f8160070b12614eb257614ea4906105d0906001600160401b031661087f614e91620186a0614e8a614e85828606614ef2565b61586b565b9304614ef2565b9160016040519586946020860190612b42565b601760f91b81520190612b42565b60405162461bcd60e51b815260206004820152601860248201527750726963654c69623a206e6567617469766520707269636560401b6044820152606490fd5b5f908072184f03e93ff9f4daa797ed6e38ed64bf6a1f0160401b811015615023575b600a906904ee2d6d415b85acef8160201b811015615008575b662386f26fc10000811015614ff3575b6305f5e100811015614fe1575b612710811015614fd1575b6064811015614fc2575b1015614fb7575b614fa26021614f7760018501614d97565b938401015b5f1901916f181899199a1a9b1b9c1cb0b131b232b360811b600a82061a8353600a900490565b8015614fb257614fa29091614f7c565b505090565b600190910190614f66565b60029060649004930192614f5f565b6004906127109004930192614f55565b6008906305f5e1009004930192614f4a565b601090662386f26fc100009004930192614f3d565b6020906904ee2d6d415b85acef8160201b9004930192614f2d565b506040915072184f03e93ff9f4daa797ed6e38ed64bf6a1f0160401b8104614f14565b93919594929095604051968795683d913730b6b2911d1160b91b60208801526029870161507291612b42565b600160fd1b815260010161508591612b42565b63080f880960e21b815260040161509b91612b42565b7f222c226465736372697074696f6e223a224d6572696469616e3a2057696c6c2081526020016150ca91612b42565b730818db1bdcd948185d081bdc8818589bdd99480960621b81526014016150f091612b42565b6301037b7160e51b815260040161510691612b42565b703f222c2261747472696275746573223a5b60781b815203600e1981018352601101610e3c9083610e09565b92949293909190156153075760405161514c604082610e09565b600781526614d95d1d1b195960ca1b6020820152915b604051958695602087017f7b2274726169745f74797065223a225469636b6572222c2276616c7565223a2290526040870161519c91612b42565b62089f4b60ea1b81527f7b2274726169745f74797065223a22546f6b656e2054797065222c2276616c7560038201526332911d1160e11b60238201526151e791602790910190612b42565b62089f4b60ea1b81527f7b2274726169745f74797065223a22537472696b65222c2276616c7565223a226003820152600960fa1b602382015261522f91602490910190612b42565b62089f4b60ea1b81527f7b2274726169745f74797065223a22457870697279222c2276616c7565223a22600382015260230161526a91612b42565b62089f4b60ea1b81527f7b2274726169745f74797065223a22537461747573222c2276616c7565223a2260038201526023016152a591612b42565b62089f4b60ea1b81527f7b2274726169745f74797065223a224f7574636f6d65222c2276616c7565223a6003820152601160f91b60238201526024016152ea91612b42565b61227d60f01b815203601d19810182526002016105d09082610e09565b604051615315604082610e09565b600681526541637469766560d01b602082015291615162565b908151156154435761535261534d6153468451612c24565b6003900490565b612beb565b90604051917f4142434445464748494a4b4c4d4e4f505152535455565758595a616263646566601f527f6768696a6b6c6d6e6f707172737475767778797a303132333435363738392b2f603f52602083018480518101602081018051915f82525b80891061540757506020959697509060039291525106806001146153f2576002146153e5575b50808452830101604052565b603d905f1901535f6153d9565b50603d90815f1982015360011901535f6153d9565b939760036004910198603f8a51818160121c165183538181600c1c16516001840153818160061c165160028401531651600382015301936153b3565b90506105d0612c61565b9160405192600184526020840152604083019160018352606084015260808301604052565b60ff5f199116019060ff8211612bce57565b9060ff8091169116039060ff8211612bce57565b6001600160801b039182169082160290811691908203612bce57565b6001600160801b039182169082160191908211612bce57565b80546001600160801b0319166001600160801b03909216919091179055565b91906105d0956155f96154ff83866104b4565b9660806001890193615511855461072b565b61551a8161072b565b5f196001851b018b16101561568257506155b3899a5b61555861554861553e6136f4565b928a845254610403565b6001600160a01b03166020830152565b6155658c604083016137c3565b60ff851660608201526155988351916020850192615587610a1d855160ff1690565b916155928383612c75565b52612c75565b506155ac6155a7825160ff1690565b6137b2565b60ff169052565b6155db6155c360ff85168c615498565b6155d5606084019161426d835161072b565b906137c3565b6155f0604082016155d58c61426d835161072b565b019060ff169052565b615613600284016142728861560e835461072b565b612c93565b61562a6156248761560e845461072b565b826154cd565b546001600160801b039061563d9061072b565b161561564c575b505050612c93565b8261565e826156639461567a96615b6c565b6104b4565b60035f918281558260018201558260028201550155565b5f8080615644565b6155b3909a615530565b815f528060205260405f2060018060a01b036156a88254610403565b161561573e57916156639161565e826001610e3c9601546156cd8160ff9060881c1690565b6156d681610d3f565b61571b576157156157036156fc6156f3608085901c60ff16615472565b6001880161379f565b509261072b565b614272600284019161560e835461072b565b83615b6c565b6157156157036156fc615734608085901c60ff16615472565b61012a880161379f565b6313a42eb760e21b5f52600483905260245ffd5b5f908152600e60209081526040808320839055600f825280832080546001600160a01b031916905560108252808320805460ff1916905560119091529020805460ff19169055565b6002821015610d495752565b81519091906157be906001600160a01b031683613412565b60208101516001830191906157dc906001600160801b0316836154cd565b6040810151825460ff60801b191660809190911b60ff60801b1617825560608101519061580882610d3f565b6002821015610d4957825460ff60881b191660889290921b60ff60881b16919091179091556080810151600283015560a0015160039190910155565b5f818152600f60205260409020546001600160a01b03166158625750565b610e3c90615752565b90815160058110156158fc57806005039060058211612bce5761588e6005614d97565b915f5b8181106158e657505f5b8281106158aa57509193505050565b806158c86158ba60019389614dc9565b516001600160f81b03191690565b6158df6158d58386612c32565b915f1a9187614dc9565b530161589b565b8060306158f560019387614dc9565b5301615891565b50565b90949392606092608083019660018060a01b03168352602083015260408201520152565b909161593a6105d09360408452604084019061130c565b91602081840391015261130c565b9081602091031261042557516105d0816104eb565b6001600160a01b039182168152911660208201526040810191909152606081019190915260a0608082018190526105d09291019061059b565b9091949293853b6159aa575b505050505050565b6020936159cc91604051968795869563f23a6e6160e01b87526004870161595d565b03815f6001600160a01b0387165af15f9181615a4a575b50615a1457506159f16133a3565b8051919082615a0d57632bfa23e760e11b5f52610aec8261119a565b6020915001fd5b6001600160e01b031916630dc5919f60e01b01615a3757505f80808080806159a2565b632bfa23e760e11b5f52610aec9061119a565b615a6d91925060203d602011615a74575b615a658183610e09565b810190615948565b905f6159e3565b503d615a5b565b6001600160a01b0391821681529116602082015260a0604082018190526105d09491939192615ac09291615ab2919086019061130c565b90848203606086015261130c565b91608081840391015261059b565b9091949293853b615ae157505050505050565b602093615b0391604051968795869563bc197c8160e01b875260048701615a7b565b03815f6001600160a01b0387165af15f9181615b4b575b50615b2857506159f16133a3565b6001600160e01b0319166343e6837f60e01b01615a3757505f80808080806159a2565b615b6591925060203d602011615a7457615a658183610e09565b905f615b1a565b5f9290839182528060205260408220600281019160038354920194855483158614615bba578082555b80158614615ba857506001915001555555565b85525060205260408320600201555555565b83865282602052806003604088200155615b95565b60018201805492939280615c04575091615c009181600394815f975555846002615bf984846104b4565b01556104b4565b0155565b5f90815260209290925260408083206003908101859055825485855291842060028101929092550191909155555056fe4a39dc06d4c0dbc64b70af90fd698a233a518aa5d07e595d983b8c0526c8f7fbc3d58168c5ae7397731d063d5bbf3d657854427343f4c083240f7aacaa2d0f62c65a7bb8d6351c1cf70c95a316cc6a92839c986682d98bc35f958f4883f9d2a84673e67a389421afca959158ea40ba94d07a267fbc7af1e5396cc8ac94f138b98dfe2e4992c35f0c2e1a1ae78bde2b832d7fabb19bb9e73ec22c5cc2ee89db2397667070c54ef182b0f5858b034beac1b6f3089aa2d3188bb1e8929f4fa9b9299b779b17422d0df92223018b32b4d1fa46e071723d6817e2486d003becc55f006b79d0e885c1922b8df12bd9fd99a5b86d849cf9dad4d296c905ba24bcb197416666bf5bfee463d10a7fc50448047f8a53b7762d7e28fbc5c643182785f3fd3fa2646970667358221220020fac174cf10ba52d8d4b757055e06603a57922db25c53034610ab12d6ac6e864736f6c634300082100333617319a054d772f909f7c479a2cebe5066e836a939412e32403c99029b92eff","linkReferences":{}},"methodIdentifiers":{"ADMIN_OVERRIDE_DELAY()":"f956c6dd","DEFAULT_ADMIN_ROLE()":"a217fddf","MAX_FEE_BPS()":"d55be8c6","MAX_PARSE_WINDOW()":"e6e9e149","OPERATOR_ROLE()":"f5b541a6","SETTLER_ROLE()":"7445e85c","addStrike(bytes32,int64,uint64)":"972a94d6","adminSettleOverride(bytes32,int64)":"1ea8aaf3","allMarketIds(uint256)":"23188024","balanceOf(address,uint256)":"00fdd58e","balanceOfBatch(address[],uint256[])":"4e1273f4","bestAsk(bytes32)":"7e3d8085","bestBid(bytes32)":"5771f997","bulkCancelOrders(uint256[])":"787508ea","buyNoLimit(bytes32,uint128,uint8)":"689a02db","buyNoMarket(bytes32,uint128,uint128,uint8)":"1d4b41d0","cancelOrder(uint256)":"514fcac7","createStrikeMarket(bytes32,int64,uint64)":"e73d073a","depthAt(bytes32,uint8,uint8)":"ba95b018","feeBps()":"24a9d853","feeRecipient()":"46904840","getMarkets(uint256)":"333c8403","getRoleAdmin(bytes32)":"248a9ca3","grantRole(bytes32,address)":"2f2ff15d","hasRole(bytes32,address)":"91d14854","isApprovedForAll(address,address)":"e985e9c5","marketCount()":"ec979082","markets(bytes32)":"7564912b","maxConfBps()":"9621472e","mintPair(bytes32,uint128)":"bedfad19","noTokenId(bytes32)":"af73823b","onERC1155BatchReceived(address,address,uint256[],uint256[],bytes)":"bc197c81","onERC1155Received(address,address,uint256,uint256,bytes)":"f23a6e61","orderMarket(uint256)":"cf549c8a","orderOwner(uint256)":"404de361","orderPriceCents(uint256)":"2a1ce312","orderSide(uint256)":"2ab6c03c","pause()":"8456cb59","paused()":"5c975abb","placeOrder(bytes32,uint8,uint8,uint128,bool)":"7d05f4b4","pyth()":"f98d06f0","redeem(bytes32,uint256)":"673da154","renounceRole(bytes32,address)":"36568abe","revokeRole(bytes32,address)":"d547741f","safeBatchTransferFrom(address,address,uint256[],uint256[],bytes)":"2eb2c2d6","safeTransferFrom(address,address,uint256,uint256,bytes)":"f242432a","sellNoMarket(bytes32,uint128,uint8,uint8)":"605d8075","setApprovalForAll(address,bool)":"a22cb465","setFee(uint16)":"8e005553","setFeeRecipient(address)":"e74b981b","setMaxConfBps(uint16)":"4075b7bc","setOracle(address)":"7adbf973","setSupportedFeed(bytes32,bytes32,bool)":"43ce2fcc","settleMarket(bytes32,bytes[],uint64,uint64)":"a07b2257","supportedFeeds(bytes32)":"01909247","supportedTickers(bytes32)":"b886a758","supportsInterface(bytes4)":"01ffc9a7","tokenIdIsYes(uint256)":"8c794edd","tokenIdToMarket(uint256)":"fd759aeb","unpause()":"3f4ba83a","uri(uint256)":"0e89341c","usdc()":"3e413bee","yesTokenId(bytes32)":"10df63c1"},"id":60}