{"abi":[{"type":"constructor","inputs":[{"name":"_oracle","type":"address","internalType":"address"},{"name":"_usdc","type":"address","internalType":"address"},{"name":"_feeRecipient","type":"address","internalType":"address"},{"name":"_feeBps","type":"uint16","internalType":"uint16"}],"stateMutability":"nonpayable"},{"type":"receive","stateMutability":"payable"},{"type":"function","name":"ADMIN_OVERRIDE_DELAY","inputs":[],"outputs":[{"name":"","type":"uint64","internalType":"uint64"}],"stateMutability":"view"},{"type":"function","name":"DEFAULT_ADMIN_ROLE","inputs":[],"outputs":[{"name":"","type":"bytes32","internalType":"bytes32"}],"stateMutability":"view"},{"type":"function","name":"MAX_FEE_BPS","inputs":[],"outputs":[{"name":"","type":"uint16","internalType":"uint16"}],"stateMutability":"view"},{"type":"function","name":"MAX_PARSE_WINDOW","inputs":[],"outputs":[{"name":"","type":"uint64","internalType":"uint64"}],"stateMutability":"view"},{"type":"function","name":"OPERATOR_ROLE","inputs":[],"outputs":[{"name":"","type":"bytes32","internalType":"bytes32"}],"stateMutability":"view"},{"type":"function","name":"SETTLER_ROLE","inputs":[],"outputs":[{"name":"","type":"bytes32","internalType":"bytes32"}],"stateMutability":"view"},{"type":"function","name":"addStrike","inputs":[{"name":"ticker","type":"bytes32","internalType":"bytes32"},{"name":"strikePrice","type":"int64","internalType":"int64"},{"name":"expiryTimestamp","type":"uint64","internalType":"uint64"}],"outputs":[{"name":"","type":"bytes32","internalType":"bytes32"}],"stateMutability":"nonpayable"},{"type":"function","name":"adminSettleOverride","inputs":[{"name":"marketId","type":"bytes32","internalType":"bytes32"},{"name":"manualPrice","type":"int64","internalType":"int64"}],"outputs":[],"stateMutability":"nonpayable"},{"type":"function","name":"allMarketIds","inputs":[{"name":"","type":"uint256","internalType":"uint256"}],"outputs":[{"name":"","type":"bytes32","internalType":"bytes32"}],"stateMutability":"view"},{"type":"function","name":"balanceOf","inputs":[{"name":"account","type":"address","internalType":"address"},{"name":"id","type":"uint256","internalType":"uint256"}],"outputs":[{"name":"","type":"uint256","internalType":"uint256"}],"stateMutability":"view"},{"type":"function","name":"balanceOfBatch","inputs":[{"name":"accounts","type":"address[]","internalType":"address[]"},{"name":"ids","type":"uint256[]","internalType":"uint256[]"}],"outputs":[{"name":"","type":"uint256[]","internalType":"uint256[]"}],"stateMutability":"view"},{"type":"function","name":"bestAsk","inputs":[{"name":"marketId","type":"bytes32","internalType":"bytes32"}],"outputs":[{"name":"","type":"uint8","internalType":"uint8"}],"stateMutability":"view"},{"type":"function","name":"bestBid","inputs":[{"name":"marketId","type":"bytes32","internalType":"bytes32"}],"outputs":[{"name":"","type":"uint8","internalType":"uint8"}],"stateMutability":"view"},{"type":"function","name":"bulkCancelOrders","inputs":[{"name":"orderIds","type":"uint256[]","internalType":"uint256[]"}],"outputs":[],"stateMutability":"nonpayable"},{"type":"function","name":"buyNoLimit","inputs":[{"name":"marketId","type":"bytes32","internalType":"bytes32"},{"name":"quantity","type":"uint128","internalType":"uint128"},{"name":"limitYesSalePrice","type":"uint8","internalType":"uint8"}],"outputs":[],"stateMutability":"nonpayable"},{"type":"function","name":"buyNoMarket","inputs":[{"name":"marketId","type":"bytes32","internalType":"bytes32"},{"name":"quantity","type":"uint128","internalType":"uint128"},{"name":"minYesSaleProceeds","type":"uint128","internalType":"uint128"},{"name":"maxFills","type":"uint8","internalType":"uint8"}],"outputs":[],"stateMutability":"nonpayable"},{"type":"function","name":"cancelOrder","inputs":[{"name":"orderId","type":"uint256","internalType":"uint256"}],"outputs":[],"stateMutability":"nonpayable"},{"type":"function","name":"createStrikeMarket","inputs":[{"name":"ticker","type":"bytes32","internalType":"bytes32"},{"name":"strikePrice","type":"int64","internalType":"int64"},{"name":"expiryTimestamp","type":"uint64","internalType":"uint64"}],"outputs":[{"name":"","type":"bytes32","internalType":"bytes32"}],"stateMutability":"nonpayable"},{"type":"function","name":"depthAt","inputs":[{"name":"marketId","type":"bytes32","internalType":"bytes32"},{"name":"side","type":"uint8","internalType":"enum OrderBookLib.Side"},{"name":"priceCents","type":"uint8","internalType":"uint8"}],"outputs":[{"name":"","type":"uint128","internalType":"uint128"}],"stateMutability":"view"},{"type":"function","name":"feeBps","inputs":[],"outputs":[{"name":"","type":"uint16","internalType":"uint16"}],"stateMutability":"view"},{"type":"function","name":"feeRecipient","inputs":[],"outputs":[{"name":"","type":"address","internalType":"address"}],"stateMutability":"view"},{"type":"function","name":"getMarkets","inputs":[{"name":"count","type":"uint256","internalType":"uint256"}],"outputs":[{"name":"result","type":"tuple[]","internalType":"struct MeridianMarket.MarketView[]","components":[{"name":"marketId","type":"bytes32","internalType":"bytes32"},{"name":"ticker","type":"bytes32","internalType":"bytes32"},{"name":"strikePrice","type":"int64","internalType":"int64"},{"name":"expiryTimestamp","type":"uint64","internalType":"uint64"},{"name":"settled","type":"bool","internalType":"bool"},{"name":"yesWins","type":"bool","internalType":"bool"},{"name":"vaultBalance","type":"uint256","internalType":"uint256"},{"name":"feeBpsSnapshot","type":"uint16","internalType":"uint16"}]}],"stateMutability":"view"},{"type":"function","name":"getRoleAdmin","inputs":[{"name":"role","type":"bytes32","internalType":"bytes32"}],"outputs":[{"name":"","type":"bytes32","internalType":"bytes32"}],"stateMutability":"view"},{"type":"function","name":"grantRole","inputs":[{"name":"role","type":"bytes32","internalType":"bytes32"},{"name":"account","type":"address","internalType":"address"}],"outputs":[],"stateMutability":"nonpayable"},{"type":"function","name":"hasRole","inputs":[{"name":"role","type":"bytes32","internalType":"bytes32"},{"name":"account","type":"address","internalType":"address"}],"outputs":[{"name":"","type":"bool","internalType":"bool"}],"stateMutability":"view"},{"type":"function","name":"isApprovedForAll","inputs":[{"name":"account","type":"address","internalType":"address"},{"name":"operator","type":"address","internalType":"address"}],"outputs":[{"name":"","type":"bool","internalType":"bool"}],"stateMutability":"view"},{"type":"function","name":"marketCount","inputs":[],"outputs":[{"name":"","type":"uint256","internalType":"uint256"}],"stateMutability":"view"},{"type":"function","name":"markets","inputs":[{"name":"marketId","type":"bytes32","internalType":"bytes32"}],"outputs":[{"name":"ticker","type":"bytes32","internalType":"bytes32"},{"name":"strikePrice","type":"int64","internalType":"int64"},{"name":"pythFeedId","type":"bytes32","internalType":"bytes32"},{"name":"expiryTimestamp","type":"uint64","internalType":"uint64"},{"name":"totalPairsMinted","type":"uint256","internalType":"uint256"},{"name":"vaultBalance","type":"uint256","internalType":"uint256"},{"name":"feeBpsSnapshot","type":"uint16","internalType":"uint16"},{"name":"settled","type":"bool","internalType":"bool"},{"name":"yesWins","type":"bool","internalType":"bool"}],"stateMutability":"view"},{"type":"function","name":"maxConfBps","inputs":[],"outputs":[{"name":"","type":"uint16","internalType":"uint16"}],"stateMutability":"view"},{"type":"function","name":"mintPair","inputs":[{"name":"marketId","type":"bytes32","internalType":"bytes32"},{"name":"quantity","type":"uint128","internalType":"uint128"}],"outputs":[],"stateMutability":"nonpayable"},{"type":"function","name":"noTokenId","inputs":[{"name":"marketId","type":"bytes32","internalType":"bytes32"}],"outputs":[{"name":"","type":"uint256","internalType":"uint256"}],"stateMutability":"pure"},{"type":"function","name":"onERC1155BatchReceived","inputs":[{"name":"","type":"address","internalType":"address"},{"name":"","type":"address","internalType":"address"},{"name":"","type":"uint256[]","internalType":"uint256[]"},{"name":"","type":"uint256[]","internalType":"uint256[]"},{"name":"","type":"bytes","internalType":"bytes"}],"outputs":[{"name":"","type":"bytes4","internalType":"bytes4"}],"stateMutability":"pure"},{"type":"function","name":"onERC1155Received","inputs":[{"name":"","type":"address","internalType":"address"},{"name":"","type":"address","internalType":"address"},{"name":"","type":"uint256","internalType":"uint256"},{"name":"","type":"uint256","internalType":"uint256"},{"name":"","type":"bytes","internalType":"bytes"}],"outputs":[{"name":"","type":"bytes4","internalType":"bytes4"}],"stateMutability":"pure"},{"type":"function","name":"orderMarket","inputs":[{"name":"orderId","type":"uint256","internalType":"uint256"}],"outputs":[{"name":"marketId","type":"bytes32","internalType":"bytes32"}],"stateMutability":"view"},{"type":"function","name":"orderOwner","inputs":[{"name":"orderId","type":"uint256","internalType":"uint256"}],"outputs":[{"name":"owner","type":"address","internalType":"address"}],"stateMutability":"view"},{"type":"function","name":"orderPriceCents","inputs":[{"name":"orderId","type":"uint256","internalType":"uint256"}],"outputs":[{"name":"priceCents","type":"uint8","internalType":"uint8"}],"stateMutability":"view"},{"type":"function","name":"orderSide","inputs":[{"name":"orderId","type":"uint256","internalType":"uint256"}],"outputs":[{"name":"","type":"uint8","internalType":"enum OrderBookLib.Side"}],"stateMutability":"view"},{"type":"function","name":"pause","inputs":[],"outputs":[],"stateMutability":"nonpayable"},{"type":"function","name":"paused","inputs":[],"outputs":[{"name":"","type":"bool","internalType":"bool"}],"stateMutability":"view"},{"type":"function","name":"placeOrder","inputs":[{"name":"marketId","type":"bytes32","internalType":"bytes32"},{"name":"side","type":"uint8","internalType":"enum OrderBookLib.Side"},{"name":"priceCents","type":"uint8","internalType":"uint8"},{"name":"quantity","type":"uint128","internalType":"uint128"},{"name":"isIOC","type":"bool","internalType":"bool"}],"outputs":[{"name":"orderId","type":"uint256","internalType":"uint256"}],"stateMutability":"nonpayable"},{"type":"function","name":"pyth","inputs":[],"outputs":[{"name":"","type":"address","internalType":"contract IPyth"}],"stateMutability":"view"},{"type":"function","name":"redeem","inputs":[{"name":"marketId","type":"bytes32","internalType":"bytes32"},{"name":"quantity","type":"uint256","internalType":"uint256"}],"outputs":[],"stateMutability":"nonpayable"},{"type":"function","name":"renounceRole","inputs":[{"name":"role","type":"bytes32","internalType":"bytes32"},{"name":"callerConfirmation","type":"address","internalType":"address"}],"outputs":[],"stateMutability":"nonpayable"},{"type":"function","name":"revokeRole","inputs":[{"name":"role","type":"bytes32","internalType":"bytes32"},{"name":"account","type":"address","internalType":"address"}],"outputs":[],"stateMutability":"nonpayable"},{"type":"function","name":"safeBatchTransferFrom","inputs":[{"name":"from","type":"address","internalType":"address"},{"name":"to","type":"address","internalType":"address"},{"name":"ids","type":"uint256[]","internalType":"uint256[]"},{"name":"values","type":"uint256[]","internalType":"uint256[]"},{"name":"data","type":"bytes","internalType":"bytes"}],"outputs":[],"stateMutability":"nonpayable"},{"type":"function","name":"safeTransferFrom","inputs":[{"name":"from","type":"address","internalType":"address"},{"name":"to","type":"address","internalType":"address"},{"name":"id","type":"uint256","internalType":"uint256"},{"name":"value","type":"uint256","internalType":"uint256"},{"name":"data","type":"bytes","internalType":"bytes"}],"outputs":[],"stateMutability":"nonpayable"},{"type":"function","name":"sellNoMarket","inputs":[{"name":"marketId","type":"bytes32","internalType":"bytes32"},{"name":"noAmount","type":"uint128","internalType":"uint128"},{"name":"maxYesBuyPrice","type":"uint8","internalType":"uint8"},{"name":"maxFills","type":"uint8","internalType":"uint8"}],"outputs":[],"stateMutability":"nonpayable"},{"type":"function","name":"setApprovalForAll","inputs":[{"name":"operator","type":"address","internalType":"address"},{"name":"approved","type":"bool","internalType":"bool"}],"outputs":[],"stateMutability":"nonpayable"},{"type":"function","name":"setFee","inputs":[{"name":"bps","type":"uint16","internalType":"uint16"}],"outputs":[],"stateMutability":"nonpayable"},{"type":"function","name":"setFeeRecipient","inputs":[{"name":"recipient","type":"address","internalType":"address"}],"outputs":[],"stateMutability":"nonpayable"},{"type":"function","name":"setMaxConfBps","inputs":[{"name":"bps","type":"uint16","internalType":"uint16"}],"outputs":[],"stateMutability":"nonpayable"},{"type":"function","name":"setOracle","inputs":[{"name":"oracle","type":"address","internalType":"address"}],"outputs":[],"stateMutability":"nonpayable"},{"type":"function","name":"setSupportedFeed","inputs":[{"name":"ticker","type":"bytes32","internalType":"bytes32"},{"name":"feedId","type":"bytes32","internalType":"bytes32"},{"name":"enabled","type":"bool","internalType":"bool"}],"outputs":[],"stateMutability":"nonpayable"},{"type":"function","name":"settleMarket","inputs":[{"name":"marketId","type":"bytes32","internalType":"bytes32"},{"name":"priceUpdate","type":"bytes[]","internalType":"bytes[]"},{"name":"minPublishTime","type":"uint64","internalType":"uint64"},{"name":"maxPublishTime","type":"uint64","internalType":"uint64"}],"outputs":[],"stateMutability":"payable"},{"type":"function","name":"supportedFeeds","inputs":[{"name":"ticker","type":"bytes32","internalType":"bytes32"}],"outputs":[{"name":"feedId","type":"bytes32","internalType":"bytes32"}],"stateMutability":"view"},{"type":"function","name":"supportedTickers","inputs":[{"name":"ticker","type":"bytes32","internalType":"bytes32"}],"outputs":[{"name":"enabled","type":"bool","internalType":"bool"}],"stateMutability":"view"},{"type":"function","name":"supportsInterface","inputs":[{"name":"interfaceId","type":"bytes4","internalType":"bytes4"}],"outputs":[{"name":"","type":"bool","internalType":"bool"}],"stateMutability":"view"},{"type":"function","name":"tokenIdIsYes","inputs":[{"name":"tokenId","type":"uint256","internalType":"uint256"}],"outputs":[{"name":"isYes","type":"bool","internalType":"bool"}],"stateMutability":"view"},{"type":"function","name":"tokenIdToMarket","inputs":[{"name":"tokenId","type":"uint256","internalType":"uint256"}],"outputs":[{"name":"marketId","type":"bytes32","internalType":"bytes32"}],"stateMutability":"view"},{"type":"function","name":"unpause","inputs":[],"outputs":[],"stateMutability":"nonpayable"},{"type":"function","name":"uri","inputs":[{"name":"id","type":"uint256","internalType":"uint256"}],"outputs":[{"name":"","type":"string","internalType":"string"}],"stateMutability":"view"},{"type":"function","name":"usdc","inputs":[],"outputs":[{"name":"","type":"address","internalType":"contract IERC20"}],"stateMutability":"view"},{"type":"function","name":"yesTokenId","inputs":[{"name":"marketId","type":"bytes32","internalType":"bytes32"}],"outputs":[{"name":"","type":"uint256","internalType":"uint256"}],"stateMutability":"pure"},{"type":"event","name":"AdminSettled","inputs":[{"name":"marketId","type":"bytes32","indexed":true,"internalType":"bytes32"},{"name":"yesWins","type":"bool","indexed":false,"internalType":"bool"},{"name":"manualPrice","type":"int64","indexed":false,"internalType":"int64"}],"anonymous":false},{"type":"event","name":"ApprovalForAll","inputs":[{"name":"account","type":"address","indexed":true,"internalType":"address"},{"name":"operator","type":"address","indexed":true,"internalType":"address"},{"name":"approved","type":"bool","indexed":false,"internalType":"bool"}],"anonymous":false},{"type":"event","name":"FeeRecipientUpdated","inputs":[{"name":"oldRecipient","type":"address","indexed":false,"internalType":"address"},{"name":"newRecipient","type":"address","indexed":false,"internalType":"address"}],"anonymous":false},{"type":"event","name":"FeeUpdated","inputs":[{"name":"oldBps","type":"uint16","indexed":false,"internalType":"uint16"},{"name":"newBps","type":"uint16","indexed":false,"internalType":"uint16"}],"anonymous":false},{"type":"event","name":"MarketCreated","inputs":[{"name":"marketId","type":"bytes32","indexed":true,"internalType":"bytes32"},{"name":"ticker","type":"bytes32","indexed":true,"internalType":"bytes32"},{"name":"strikePrice","type":"int64","indexed":false,"internalType":"int64"},{"name":"expiryTimestamp","type":"uint64","indexed":false,"internalType":"uint64"},{"name":"pythFeedId","type":"bytes32","indexed":false,"internalType":"bytes32"}],"anonymous":false},{"type":"event","name":"MarketSettled","inputs":[{"name":"marketId","type":"bytes32","indexed":true,"internalType":"bytes32"},{"name":"yesWins","type":"bool","indexed":false,"internalType":"bool"},{"name":"settlePrice","type":"int64","indexed":false,"internalType":"int64"},{"name":"publishTime","type":"uint256","indexed":false,"internalType":"uint256"}],"anonymous":false},{"type":"event","name":"OrderCancelled","inputs":[{"name":"orderId","type":"uint256","indexed":true,"internalType":"uint256"},{"name":"owner","type":"address","indexed":true,"internalType":"address"},{"name":"remainingQty","type":"uint128","indexed":false,"internalType":"uint128"}],"anonymous":false},{"type":"event","name":"OrderFilled","inputs":[{"name":"marketId","type":"bytes32","indexed":true,"internalType":"bytes32"},{"name":"orderId","type":"uint256","indexed":true,"internalType":"uint256"},{"name":"maker","type":"address","indexed":true,"internalType":"address"},{"name":"taker","type":"address","indexed":false,"internalType":"address"},{"name":"side","type":"uint8","indexed":false,"internalType":"uint8"},{"name":"priceCents","type":"uint8","indexed":false,"internalType":"uint8"},{"name":"qty","type":"uint128","indexed":false,"internalType":"uint128"}],"anonymous":false},{"type":"event","name":"OrderPlaced","inputs":[{"name":"marketId","type":"bytes32","indexed":true,"internalType":"bytes32"},{"name":"orderId","type":"uint256","indexed":true,"internalType":"uint256"},{"name":"owner","type":"address","indexed":true,"internalType":"address"},{"name":"side","type":"uint8","indexed":false,"internalType":"enum OrderBookLib.Side"},{"name":"priceCents","type":"uint8","indexed":false,"internalType":"uint8"},{"name":"quantity","type":"uint128","indexed":false,"internalType":"uint128"}],"anonymous":false},{"type":"event","name":"PairMinted","inputs":[{"name":"marketId","type":"bytes32","indexed":true,"internalType":"bytes32"},{"name":"user","type":"address","indexed":true,"internalType":"address"},{"name":"quantity","type":"uint256","indexed":false,"internalType":"uint256"}],"anonymous":false},{"type":"event","name":"Paused","inputs":[{"name":"account","type":"address","indexed":false,"internalType":"address"}],"anonymous":false},{"type":"event","name":"Redeemed","inputs":[{"name":"marketId","type":"bytes32","indexed":true,"internalType":"bytes32"},{"name":"user","type":"address","indexed":true,"internalType":"address"},{"name":"quantity","type":"uint256","indexed":false,"internalType":"uint256"},{"name":"payout","type":"uint256","indexed":false,"internalType":"uint256"}],"anonymous":false},{"type":"event","name":"RoleAdminChanged","inputs":[{"name":"role","type":"bytes32","indexed":true,"internalType":"bytes32"},{"name":"previousAdminRole","type":"bytes32","indexed":true,"internalType":"bytes32"},{"name":"newAdminRole","type":"bytes32","indexed":true,"internalType":"bytes32"}],"anonymous":false},{"type":"event","name":"RoleGranted","inputs":[{"name":"role","type":"bytes32","indexed":true,"internalType":"bytes32"},{"name":"account","type":"address","indexed":true,"internalType":"address"},{"name":"sender","type":"address","indexed":true,"internalType":"address"}],"anonymous":false},{"type":"event","name":"RoleRevoked","inputs":[{"name":"role","type":"bytes32","indexed":true,"internalType":"bytes32"},{"name":"account","type":"address","indexed":true,"internalType":"address"},{"name":"sender","type":"address","indexed":true,"internalType":"address"}],"anonymous":false},{"type":"event","name":"SupportedFeedSet","inputs":[{"name":"ticker","type":"bytes32","indexed":true,"internalType":"bytes32"},{"name":"feedId","type":"bytes32","indexed":false,"internalType":"bytes32"},{"name":"enabled","type":"bool","indexed":false,"internalType":"bool"}],"anonymous":false},{"type":"event","name":"TransferBatch","inputs":[{"name":"operator","type":"address","indexed":true,"internalType":"address"},{"name":"from","type":"address","indexed":true,"internalType":"address"},{"name":"to","type":"address","indexed":true,"internalType":"address"},{"name":"ids","type":"uint256[]","indexed":false,"internalType":"uint256[]"},{"name":"values","type":"uint256[]","indexed":false,"internalType":"uint256[]"}],"anonymous":false},{"type":"event","name":"TransferSingle","inputs":[{"name":"operator","type":"address","indexed":true,"internalType":"address"},{"name":"from","type":"address","indexed":true,"internalType":"address"},{"name":"to","type":"address","indexed":true,"internalType":"address"},{"name":"id","type":"uint256","indexed":false,"internalType":"uint256"},{"name":"value","type":"uint256","indexed":false,"internalType":"uint256"}],"anonymous":false},{"type":"event","name":"URI","inputs":[{"name":"value","type":"string","indexed":false,"internalType":"string"},{"name":"id","type":"uint256","indexed":true,"internalType":"uint256"}],"anonymous":false},{"type":"event","name":"Unpaused","inputs":[{"name":"account","type":"address","indexed":false,"internalType":"address"}],"anonymous":false},{"type":"error","name":"AccessControlBadConfirmation","inputs":[]},{"type":"error","name":"AccessControlUnauthorizedAccount","inputs":[{"name":"account","type":"address","internalType":"address"},{"name":"neededRole","type":"bytes32","internalType":"bytes32"}]},{"type":"error","name":"AlreadySettled","inputs":[{"name":"marketId","type":"bytes32","internalType":"bytes32"}]},{"type":"error","name":"ConfidenceTooWide","inputs":[{"name":"conf","type":"uint64","internalType":"uint64"},{"name":"absPrice","type":"uint64","internalType":"uint64"},{"name":"thresholdBps","type":"uint16","internalType":"uint16"}]},{"type":"error","name":"ERC1155InsufficientBalance","inputs":[{"name":"sender","type":"address","internalType":"address"},{"name":"balance","type":"uint256","internalType":"uint256"},{"name":"needed","type":"uint256","internalType":"uint256"},{"name":"tokenId","type":"uint256","internalType":"uint256"}]},{"type":"error","name":"ERC1155InvalidApprover","inputs":[{"name":"approver","type":"address","internalType":"address"}]},{"type":"error","name":"ERC1155InvalidArrayLength","inputs":[{"name":"idsLength","type":"uint256","internalType":"uint256"},{"name":"valuesLength","type":"uint256","internalType":"uint256"}]},{"type":"error","name":"ERC1155InvalidOperator","inputs":[{"name":"operator","type":"address","internalType":"address"}]},{"type":"error","name":"ERC1155InvalidReceiver","inputs":[{"name":"receiver","type":"address","internalType":"address"}]},{"type":"error","name":"ERC1155InvalidSender","inputs":[{"name":"sender","type":"address","internalType":"address"}]},{"type":"error","name":"ERC1155MissingApprovalForAll","inputs":[{"name":"operator","type":"address","internalType":"address"},{"name":"owner","type":"address","internalType":"address"}]},{"type":"error","name":"EnforcedPause","inputs":[]},{"type":"error","name":"ExpectedPause","inputs":[]},{"type":"error","name":"FeeTooHigh","inputs":[{"name":"bps","type":"uint16","internalType":"uint16"}]},{"type":"error","name":"InsufficientProceed","inputs":[{"name":"got","type":"uint128","internalType":"uint128"},{"name":"minExpected","type":"uint128","internalType":"uint128"}]},{"type":"error","name":"InvalidPrice","inputs":[{"name":"priceCents","type":"uint8","internalType":"uint8"}]},{"type":"error","name":"InvalidQuantity","inputs":[]},{"type":"error","name":"InvalidSettlementWindow","inputs":[]},{"type":"error","name":"MarketExists","inputs":[{"name":"marketId","type":"bytes32","internalType":"bytes32"}]},{"type":"error","name":"MarketExpired","inputs":[{"name":"marketId","type":"bytes32","internalType":"bytes32"}]},{"type":"error","name":"MarketNotExpired","inputs":[{"name":"marketId","type":"bytes32","internalType":"bytes32"}]},{"type":"error","name":"MarketNotFound","inputs":[{"name":"marketId","type":"bytes32","internalType":"bytes32"}]},{"type":"error","name":"MarketNotSettled","inputs":[{"name":"marketId","type":"bytes32","internalType":"bytes32"}]},{"type":"error","name":"NegativePrice","inputs":[{"name":"price","type":"int64","internalType":"int64"}]},{"type":"error","name":"NoLiquidity","inputs":[]},{"type":"error","name":"OrderNotFound","inputs":[{"name":"orderId","type":"uint256","internalType":"uint256"}]},{"type":"error","name":"OrderNotOwned","inputs":[{"name":"orderId","type":"uint256","internalType":"uint256"}]},{"type":"error","name":"ReentrancyGuardReentrantCall","inputs":[]},{"type":"error","name":"SafeERC20FailedOperation","inputs":[{"name":"token","type":"address","internalType":"address"}]},{"type":"error","name":"SelfTradeNotAllowed","inputs":[]},{"type":"error","name":"UnexpectedExponent","inputs":[{"name":"actual","type":"int32","internalType":"int32"},{"name":"expected","type":"int32","internalType":"int32"}]},{"type":"error","name":"UnknownTokenId","inputs":[{"name":"tokenId","type":"uint256","internalType":"uint256"}]},{"type":"error","name":"UnsupportedTicker","inputs":[{"name":"ticker","type":"bytes32","internalType":"bytes32"}]},{"type":"error","name":"WindowTooWide","inputs":[]},{"type":"error","name":"ZeroQuantity","inputs":[]}],"bytecode":{"object":"0x6080604052346101ee57604051601f61634238819003918201601f19168301916001600160401b038311848410176101da578084926080946040528339810103126101ee5761004d816101f2565b9061005a602082016101f2565b6060610068604084016101f2565b9201519061ffff8216938483036101ee5760405160208101906001600160401b038211818310176101da575f9160405252600254600181811c911680156101d0575b60208210146101bc57601f8111610189575b505f60025560017f9b779b17422d0df92223018b32b4d1fa46e071723d6817e2486d003becc55f00556006549460c88111610177575060048054610100600160a81b03191660089290921b610100600160a81b0316919091179055600580546001600160a01b0319166001600160a01b03928316179055919091166001600160c01b03199092169190911760a09190911b61ffff60a01b1617601960b21b1760065561016733610206565b5060405161609290816102908239f35b638ea70c0760e01b5f5260045260245ffd5b80156100bc5760025f52601f60205f20910160051c905f5b8281106101af5750506100bc565b5f828201556001016101a1565b634e487b7160e01b5f52602260045260245ffd5b90607f16906100aa565b634e487b7160e01b5f52604160045260245ffd5b5f80fd5b51906001600160a01b03821682036101ee57565b6001600160a01b0381165f9081525f5160206163225f395f51905f52602052604090205460ff1661028a576001600160a01b03165f8181525f5160206163225f395f51905f5260205260408120805460ff191660011790553391907f2f8788117e7eff1d82e926ec794901d17c78024a50270940304540a733656f0d8180a4600190565b505f9056fe6080604052600436101561001a575b3615610018575f80fd5b005b5f3560e01c8062fdd58e146103fe57806301909247146103f957806301ffc9a7146103f45780630e89341c146103ef57806310df63c1146103ea5780631d4b41d0146103e55780631ea8aaf3146103e057806323188024146103db578063248a9ca3146103d657806324a9d853146103d15780632a1ce312146103cc5780632ab6c03c146103c75780632eb2c2d6146103c25780632f2ff15d146103bd578063333c8403146103b857806336568abe146103b35780633e413bee146103ae5780633f4ba83a146103a9578063404de361146103a45780634075b7bc1461039f57806343ce2fcc1461039a57806346904840146103955780634e1273f414610390578063514fcac71461038b5780635771f997146103865780635c975abb14610381578063605d80751461037c578063673da15414610377578063689a02db146103725780637445e85c1461036d5780637564912b14610368578063787508ea146103635780637adbf9731461035e5780637d05f4b4146103595780637e3d8085146103545780638456cb591461034f5780638c794edd1461034a5780638e0055531461034557806391d14854146103405780639621472e1461033b578063972a94d6146102ff578063a07b225714610336578063a217fddf14610331578063a22cb4651461032c578063af73823b14610327578063b886a75814610322578063ba95b0181461031d578063bc197c8114610318578063bedfad1914610313578063cf549c8a1461030e578063d547741f14610309578063d55be8c614610304578063e6e9e149146102dc578063e73d073a146102ff578063e74b981b146102fa578063e985e9c5146102f5578063ec979082146102f0578063f23a6e61146102eb578063f242432a146102e6578063f5b541a6146102e1578063f956c6dd146102dc578063f98d06f0146102d75763fd759aeb0361000e57612c88565b612c5c565b612a73565b612c22565b612bc6565b612b70565b612b53565b612b03565b612a8f565b612292565b612a58565b612a1a565b6129f0565b6128b1565b612819565b612748565b612719565b6126e4565b61261b565b612601565b6122b3565b612234565b6121e5565b612157565b612128565b6120cf565b6120a6565b611e41565b611dea565b611d4d565b611c73565b611c39565b611b26565b6118ac565b61150d565b6114eb565b6114b7565b61144e565b61138f565b611323565b61129d565b611239565b6111ea565b611184565b61115c565b611118565b61104e565b61100b565b610f81565b610dbb565b610d63565b610d3f565b610d0c565b610cbc565b610b3b565b61077e565b6106f2565b6105a1565b6104cb565b61048f565b610447565b600435906001600160a01b038216820361041957565b5f80fd5b602435906001600160a01b038216820361041957565b35906001600160a01b038216820361041957565b34610419576040366003190112610419576020610486610465610403565b6024355f525f835260405f209060018060a01b03165f5260205260405f2090565b54604051908152f35b34610419576020366003190112610419576004355f526007602052602060405f2054604051908152f35b6001600160e01b031981160361041957565b34610419576020366003190112610419576004356104e8816104b9565b63ffffffff60e01b16637965db0b60e01b8114908115610529575b8115610518575b506040519015158152602090f35b630271189760e51b1490505f61050a565b9050636cdb3d1360e11b81148015610559575b8015610549575b90610503565b506301ffc9a760e01b8114610543565b506303a24d0760e21b811461053c565b805180835260209291819084018484015e5f828201840152601f01601f1916010190565b90602061059e928181520190610569565b90565b3461041957602036600319011261041957600435805f52600b60205260405f205480156106df5761069461068f610699926106a5945f52600c6020526106896105fa60ff60405f205416925f52600960205260405f2090565b61060481546150f2565b9261061b610616600184015460070b90565b61516a565b9161064761064261063660038401546001600160401b031690565b6001600160401b031690565b615209565b91156106cf5760066106576135b3565b915b015491601083901c60ff1692836106a9575061067361361f565b935b61068382828981878261535f565b9661544b565b90613644565b615647565b612cc4565b6040519182918261058d565b0390f35b60181c60ff16156106c2576106bc6135f9565b93610675565b6106ca6135d4565b6106bc565b60066106d9613593565b91610659565b50631af0266d60e21b5f5260045260245ffd5b34610419576020366003190112610419576020600435604051908152f35b6001600160801b031690565b602435906001600160801b038216820361041957565b604435906001600160801b038216820361041957565b606435906001600160801b038216820361041957565b6064359060ff8216820361041957565b6044359060ff8216820361041957565b346104195760803660031901126104195760043561079a61071c565b906107a3610732565b906107ac61075e565b916107b561367f565b6107bd61369a565b6107cf825f52600960205260405f2090565b926107e460038501546001600160401b031690565b6001600160401b03811615610b1c576001600160401b0316421015610b08576001600160801b038516908115610af9576108ae8260046108266108c895612d24565b600554909890610845908a906001600160a01b03165b309033906136e5565b61085460058201998a54612da2565b895501610862828254612da2565b905560405160208101906108888161087a8a85612daf565b03601f198101835282610e5a565b5190209061089f610897612dd1565b828930613773565b6108a7612dd1565b9133613773565b3390866108c3865f52600d60205260405f2090565b613939565b6060810180519193909290916001600160801b039081169082168110610ad85750506020830151919460ff909216915f5b60ff811684811015610a3a5760ff91610a31610a2a610a2589610a1f610a196060610978896109ff8e8761093060019e8251612de5565b5151825f516020615ffd5f395f51905f526109606020610951898751612de5565b5101516001600160a01b031690565b61099760406109888a6109818e610978838c51612de5565b51015160ff1690565b9851612de5565b5101516001600160801b031690565b604080513381526001602082015260ff97909716908701526001600160801b031660608601526001600160a01b031693608090a46109db6020610951858b51612de5565b906109ef6107106040610988878d51612de5565b906109f8612dd1565b9230613c95565b610a126107106040610988848a51612de5565b9551612de5565b60ff1690565b90612d73565b612d43565b8954612df6565b885501166108f9565b505083610a888692610a6e610a5b610a256107108c5160018060801b031690565b60055433906001600160a01b0316613dd4565b604092909201516001600160801b03929083165b90612e03565b169182610a98575b6100186136d2565b82610aaa610ad094610aaf9330613e2a565b612d24565b90610abb828254612df6565b905560055433906001600160a01b0316613dd4565b808080610a90565b630e34d4c560e11b5f526001600160801b039081166004521660245260445ffd5b63f4f5b73360e01b5f5260045ffd5b63291561fb60e11b5f52600483905260245ffd5b638edfb9e960e01b5f52600484905260245ffd5b8060070b0361041957565b3461041957604036600319011261041957602435600435610b5b82610b30565b610b63613f49565b610b75815f52600960205260405f2090565b91610b8a60038401546001600160401b031690565b6001600160401b03811615610c77576006840190610bad825460ff9060101c1690565b610c6357610636610bbd91612e1c565b4210610c4f57610c38610bff610bf960017f75db0622e15103635f1cc53353a7e715f4b71125b33ea33f93e451c23427484a9697015460070b90565b60070b90565b8360070b121582610c1c82946201000062ff000019825416179055565b9063ff000000825491151560181b169063ff0000001916179055565b60408051911515825260079290920b6020820152a2005b637294095160e11b5f52600483905260245ffd5b6358cb522560e11b5f52600484905260245ffd5b638edfb9e960e01b5f52600483905260245ffd5b634e487b7160e01b5f52603260045260245ffd5b600a54811015610cb757600a5f5260205f2001905f90565b610c8b565b3461041957602036600319011261041957600435600a5481101561041957600a5f527fc65a7bb8d6351c1cf70c95a316cc6a92839c986682d98bc35f958f4883f9d2a80154604051908152602090f35b34610419576020366003190112610419576020610d376004355f526003602052600160405f20015490565b604051908152f35b34610419575f36600319011261041957602061ffff60065460a01c16604051908152f35b34610419576020366003190112610419576004355f526011602052602060ff60405f205416604051908152f35b60021115610d9a57565b634e487b7160e01b5f52602160045260245ffd5b906002821015610d9a5752565b34610419576020366003190112610419576004355f526010602052602060ff60405f205416610ded6040518092610dae565bf35b634e487b7160e01b5f52604160045260245ffd5b61010081019081106001600160401b03821117610e1f57604052565b610def565b608081019081106001600160401b03821117610e1f57604052565b606081019081106001600160401b03821117610e1f57604052565b90601f801991011681019081106001600160401b03821117610e1f57604052565b60405190610e8b61010083610e5a565b565b60405190610e8b60c083610e5a565b60405190610e8b61012083610e5a565b6001600160401b038111610e1f5760051b60200190565b9080601f83011215610419578135610eda81610eac565b92610ee86040519485610e5a565b81845260208085019260051b82010192831161041957602001905b828210610f105750505090565b8135815260209182019101610f03565b6001600160401b038111610e1f57601f01601f191660200190565b81601f8201121561041957803590610f5282610f20565b92610f606040519485610e5a565b8284526020838301011161041957815f926020809301838601378301015290565b346104195760a036600319011261041957610f9a610403565b610fa261041d565b906044356001600160401b03811161041957610fc2903690600401610ec3565b6064356001600160401b03811161041957610fe1903690600401610ec3565b90608435936001600160401b03851161041957611005610018953690600401610f3b565b93612e3b565b346104195760403660031901126104195761001860043561102a61041d565b90611049611044825f526003602052600160405f20015490565b614076565b614116565b346104195760203660031901126104195761106a60043561305d565b6040518091602082016020835281518091526020604084019201905f5b818110611095575050500390f35b91935091602061010060019261110a60e08851805184528581015186850152604081015160070b60408501526001600160401b0360608201511660608501526080810151151560808501526110f360a082015160a086019015159052565b60c08181015190850152015161ffff1660e0830152565b019401910191849392611087565b346104195760403660031901126104195760043561113461041d565b336001600160a01b0382160361114d57610018916141a6565b63334bd91960e11b5f5260045ffd5b34610419575f366003190112610419576005546040516001600160a01b039091168152602090f35b34610419575f3660031901126104195761119c613f49565b60045460ff8116156111db5760ff19166004557f5db9ee0a495bf2e6ff9c91a7834c1ba4fdd244a5e8aa4e537bd38aeae4b073aa6020604051338152a1005b638dfc202b60e01b5f5260045ffd5b34610419576020366003190112610419576004355f52600f602052602060018060a01b0360405f205416604051908152f35b60209060031901126104195760043561ffff811681036104195790565b34610419576112473661121c565b61124f613f49565b6006805461ffff60b01b191660b09290921b61ffff60b01b16919091179055005b60443590811515820361041957565b60843590811515820361041957565b60243590811515820361041957565b34610419576060366003190112610419576004357f4c4ac9ecaca82deed7fdc8387cb1051848503f1e09c14a2374386da8cc2cd42660406024356112df611270565b6112e7613f49565b845f52600860205261130781845f209060ff801983541691151516179055565b845f52600760205281835f2055825191825215156020820152a2005b34610419575f366003190112610419576006546040516001600160a01b039091168152602090f35b90602080835192838152019201905f5b8181106113685750505090565b825184526020938401939092019160010161135b565b90602061059e92818152019061134b565b34610419576040366003190112610419576004356001600160401b0381116104195736602382011215610419578060040135906113cb82610eac565b916113d96040519384610e5a565b8083526024602084019160051b8301019136831161041957602401905b82821061143657836024356001600160401b038111610419576106a59161142461142a923690600401610ec3565b906131b4565b6040519182918261137e565b6020809161144384610433565b8152019101906113f6565b346104195760203660031901126104195760043561146a61369a565b5f818152600f60205260409020546001600160a01b031633036114a55761149290339061422e565b60015f51602061603d5f395f51905f5255005b6312e9e14760e11b5f5260045260245ffd5b34610419576020366003190112610419576004355f52600d60205260206114e060405f20614316565b60ff60405191168152f35b34610419575f36600319011261041957602060ff600454166040519015158152f35b346104195760803660031901126104195760043561152961071c565b61153161076e565b61153961075e565b9161154261367f565b61154a61369a565b61155c845f52600960205260405f2090565b9361157160038601546001600160401b031690565b6001600160401b03811615611898576001600160401b0316421015611886576001600160801b0382168015610af957610a256115de9160ff60405160208101906115bf8161087a8985612daf565b519020966115d76115ce612dd1565b848a3033613c95565b1690612d73565b926115fb8430336115f660055460018060a01b031690565b6136e5565b61162a600587019561160e868854612da2565b8755339085611625865f52600d60205260405f2090565b613b40565b925f9660208501975b611641610a198a5160ff1690565b60ff8216908110156117405760ff60016116419361173461095161172d868d8d61166f610a199a8351612de5565b5151905f516020615ffd5f395f51905f526116906020610951878751612de5565b6116a96040610988886109816060610978838c51612de5565b604080513381525f602082015260ff97909716908701526001600160801b0316606086015260a08b901b8b90031693608090a48d611727602061170e610a256116fb6107106040610988898951612de5565b610a1f610a1960606109788a8a51612de5565b6005549096879590916001600160a01b03169451612de5565b90613dd4565b8d54612df6565b8c550116915050611633565b5050869360406117ab949661176e89611768610a25610710606086015160018060801b031690565b90612df6565b8061185c575b5001805190959061178d906001600160801b0316610710565b92836117d5575b505093516001600160801b03945084169050610a82565b1690816117ba576100186136d2565b6117ce916117c6612dd1565b913330613c95565b8080610a90565b6118026117e461185395612d24565b88519094906117fb906001600160801b0316610710565b9030613e2a565b86516118219061181a906001600160801b0316610710565b8930613e2a565b86516118469060049061183c906001600160801b0316610710565b9201918254612df6565b9055610abb828254612df6565b84808080611794565b8061186b611880928a54612df6565b895560055433906001600160a01b0316613dd4565b88611774565b63291561fb60e11b5f5260045260245ffd5b638edfb9e960e01b5f52600482905260245ffd5b34610419576040366003190112610419576024356004356118cb61369a565b6118dd815f52600960205260405f2090565b60068101805460ff601082901c16156118f5565b1590565b611b12578415610af95760405160208101906119158161087a8885612daf565b51902090856119443361192f885f525f60205260405f2090565b9060018060a01b03165f5260205260405f2090565b54101561196d876119603361192f875f525f60205260405f2090565b5410159260181c60ff1690565b15611ac15715611a5a57505f51602061601d5f395f51905f52926119bd926001925061199b87875b33613e2a565b5f926119c8575b50506040805195865260208601919091523394918291820190565b0390a36100186136d2565b611a53919250611a016119f96119f36119ec6119e38b612d24565b945461ffff1690565b61ffff1690565b83612d73565b612710900490565b90611a1b6005611a118484612df6565b9501918254612df6565b9055600554611a3690849033906001600160a01b0316613dd4565b6005546001600160a01b03166006546001600160a01b0316611727565b5f806119a2565b90919015611a81575f51602061601d5f395f51905f52926119bd929161199b875f94611995565b60405162461bcd60e51b8152602060048201526013602482015272496e73756666696369656e7420746f6b656e7360681b604482015280606481015b0390fd5b9293929015611aec5750916119bd915f51602061601d5f395f51905f52939161199b87600194611995565b159050611a81575f51602061601d5f395f51905f52916119bd915f9161199b8787611995565b6303bc8d8d60e51b5f52600484905260245ffd5b3461041957606036600319011261041957600435611b4261071c565b90611b4b61076e565b91611b5461367f565b611b5c61369a565b611b6e825f52600960205260405f2090565b92611b8360038501546001600160401b031690565b6001600160401b03811615610b1c576001600160401b0316421015610b08576001600160801b038216938415610af957846004611c2992611bc6611c3098612d24565b600554611bdd9082906001600160a01b031661083c565b611bec60058301918254612da2565b905501611bfa828254612da2565b90556040516020810190611c128161087a8985612daf565b5190209061089f611c21612dd1565b828830613773565b33926143a5565b506100186136d2565b34610419575f3660031901126104195760206040517f6666bf5bfee463d10a7fc50448047f8a53b7762d7e28fbc5c643182785f3fd3f8152f35b34610419576020366003190112610419576004355f90815260096020908152604091829020805460018201546002830154600384015460048501546005860154600690960154885195865260079490940b96850196909652958301526001600160401b039094166060820152608081019290925260a082015261ffff821660c082015260ff601083901c8116151560e083015260189290921c909116151561010082015261012090f35b9181601f84011215610419578235916001600160401b038311610419576020808501948460051b01011161041957565b34610419576020366003190112610419576004356001600160401b03811161041957611d7d903690600401611d1d565b611d8561369a565b5f5b818110611da15760015f51602061603d5f395f51905f5255005b80611daf6001928486613286565b355f52600f60205233828060a01b0360405f20541603611de557611ddf611dd7828587613286565b35339061422e565b01611d87565b611ddf565b3461041957602036600319011261041957611e03610403565b611e0b613f49565b60048054610100600160a81b03191660089290921b610100600160a81b0316919091179055005b60243590600282101561041957565b346104195760a036600319011261041957600435611e5d611e32565b611e6561076e565b611e6d610748565b92611e7661127f565b91611e7f61367f565b611e8761369a565b5f92611e9b835f52600960205260405f2090565b60038101546001600160401b03168015612092576001600160401b031642101561207e576001600160801b0387168015610af95760a0611f7391611f446106a59a611ee58b610d90565b8a1592831561206457610a25611eff9160ff8b1690612d73565b600554611f169082906001600160a01b031661083c565b611f2560058801918254612da2565b90555b611f3a895f52600d60205260405f2090565b90888c339361474e565b90611f5133838c8b6149e0565b611f5a8a610d90565b80612045575b611fce575b01516001600160801b031690565b916001600160801b038316611f9d575b8786611f8d6136d2565b6040519081529081906020820190565b15611fba5794611faf94953394614bba565b805f80808080611f83565b50919250611fc99333936145ac565b611faf565b6040810151611ff790610a2590611fed906001600160801b0316610710565b60ff891690612d73565b606082015161201290610a25906001600160801b0316610710565b90818111612022575b5050611f65565b61203e9161202f91612df6565b60058601610abb828254612df6565b5f8061201b565b50604081015161205d906001600160801b0316610710565b1515611f60565b61207990612070612dd1565b908b3033613c95565b611f28565b63291561fb60e11b5f52600484905260245ffd5b638edfb9e960e01b5f52600485905260245ffd5b34610419576020366003190112610419576004355f52600d60205260206114e060405f20614c30565b34610419575f366003190112610419576120e7613f49565b6120ef61367f565b600160ff1960045416176004557f62e78cea01bee320cd4e420270b5ea74000d11b0c9f74754ebdbfc544b05a2586020604051338152a1005b34610419576020366003190112610419576004355f52600c602052602060ff60405f2054166040519015158152f35b34610419576121653661121c565b61216d613f49565b61ffff81169060c882116121d2577f2e7c4279000925b8ff0bca0e7109cbc47fc6f6c4edfb831ffe7466cf0af07fa060406006549381519061ffff8660a01c1682526020820152a161ffff60a01b1990911660a09190911b61ffff60a01b1617600655005b50638ea70c0760e01b5f5260045260245ffd5b3461041957604036600319011261041957602060ff61222860043561220861041d565b905f526003845260405f209060018060a01b03165f5260205260405f2090565b54166040519015158152f35b34610419575f36600319011261041957602061ffff60065460b01c16604051908152f35b6001600160401b0381160361041957565b6060906003190112610419576004359060243561228581610b30565b9060443561059e81612258565b34610419576020610d376122a536612269565b916122ae613f98565b614dc2565b6080366003190112610419576004356024356001600160401b038111610419576122e1903690600401611d1d565b604492919235906122f182612258565b606435906122fe82612258565b612306614007565b61230e61369a565b612320845f52600960205260405f2090565b9161233560038401546001600160401b031690565b916001600160401b038316156125ed576006840192612359845460ff9060101c1690565b6125d9576001600160401b03168042106125c557806001600160401b038716119081156125b2575b506125a3576103846001600160401b0361239b8785613296565b16116125945760045460081c6001600160a01b0316906040519763d47eed4560e01b8952602089806123d185856004840161336a565b0381865afa988915612556575f9961255b575b5090885f9493926124236123f6613386565b9560028a01546124058861303c565b52604051634716e9c560e01b81529a8b9788968795600487016134bb565b03925af1918215612556577f1a68deef50ff685ff1d5949a4acdb6d648a3e4fb36b782583db14a9cb570adfd935f9361252a575b5061248b6124a29161247b6001602061246f8861303c565b51015192015460070b90565b60065460b01c61ffff1691614fd1565b825462ff0000191662010000178355918290610c1c565b6124f0606060206124c96124c3826124b98861303c565b5101515160070b90565b9561303c565b51015101516040519384938460409194939260608201951515825260070b60208201520152565b0390a2803411612502576100186136d2565b5f8080806125136125249534612df6565b335af161251e613524565b50613553565b5f610a90565b6124a291935061254e61248b913d805f833e6125468183610e5a565b810190613401565b939150612457565b61337b565b5f9493929199506125839060203d60201161258d575b61257b8183610e5a565b8101906132b6565b98909192936123e4565b503d612571565b6380ed59c360e01b5f5260045ffd5b633432315160e21b5f5260045ffd5b90506001600160401b038316105f612381565b637294095160e11b5f52600487905260245ffd5b6358cb522560e11b5f52600487905260245ffd5b638edfb9e960e01b5f52600486905260245ffd5b34610419575f3660031901126104195760206040515f8152f35b3461041957604036600319011261041957612634610403565b61263c61128e565b33156126d1576001600160a01b0382169182156126bf578161267c61268d92335f52600160205260405f209060018060a01b03165f5260205260405f2090565b9060ff801983541691151516179055565b604051901515815233907f17307eab39ab6107e8899845ad3d59bd9653f200f220920489ca2b5937696c3190602090a3005b62ced3e160e81b5f525f60045260245ffd5b631f18c42760e11b5f525f60045260245ffd5b3461041957602036600319011261041957602060043560405161270e8161087a8582019485612daf565b519020604051908152f35b34610419576020366003190112610419576004355f526008602052602060ff60405f2054166040519015158152f35b3461041957606036600319011261041957600435612764611e32565b9061276d61076e565b905f52600d60205260405f20906002831015610d9a576106a5926127d0576127a76127b69260016127a08160029561579d565b9101613915565b5001546001600160801b031690565b6040516001600160801b0390911681529081906020820190565b6127a76127e79261012a6127a0600160029561579d565b6127b6565b9181601f84011215610419578235916001600160401b038311610419576020838186019501011161041957565b346104195760a036600319011261041957612832610403565b5061283b61041d565b506044356001600160401b0381116104195761285b903690600401611d1d565b50506064356001600160401b0381116104195761287c903690600401611d1d565b50506084356001600160401b0381116104195761289d9036906004016127ec565b505060405163bc197c8160e01b8152602090f35b34610419576040366003190112610419576004356128cd61071c565b906128d661367f565b6128de61369a565b6128f0815f52600960205260405f2090565b60038101546001600160401b03168015610c77576001600160401b03164210156129dc576001600160801b0383168015610af957600461299e9261293383612d24565b60055461294a9082906001600160a01b031661083c565b61295960058301918254612da2565b905501612967828254612da2565b905561297c612974612dd1565b828533613773565b60405160208101906129928161087a8785612daf565b519020906108a7612dd1565b6040516001600160801b03909216825233917f443a7a221ba2becab08e26f328e7eb65cba076581777457f894a819cf0dfd2e39080602081016119bd565b63291561fb60e11b5f52600482905260245ffd5b34610419576020366003190112610419576004355f52600e602052602060405f2054604051908152f35b3461041957604036600319011261041957610018600435612a3961041d565b90612a53611044825f526003602052600160405f20015490565b6141a6565b34610419575f36600319011261041957602060405160c88152f35b34610419575f3660031901126104195760206040516103848152f35b3461041957602036600319011261041957612aa8610403565b612ab0613f49565b600654604080516001600160a01b03808416825290931660208401819052927faaebcf1bfa00580e41d966056b48521fa9f202645c86d4ddf28113e617c1b1d39190a16001600160a01b03191617600655005b3461041957604036600319011261041957602060ff612228612b23610403565b612b2b61041d565b6001600160a01b039182165f9081526001865260408082209290931681526020919091522090565b34610419575f366003190112610419576020600a54604051908152f35b346104195760a036600319011261041957612b89610403565b50612b9261041d565b506084356001600160401b03811161041957612bb29036906004016127ec565b505060405163f23a6e6160e01b8152602090f35b346104195760a036600319011261041957612bdf610403565b612be761041d565b9060443560643590608435936001600160401b03851161041957612c12610018953690600401610f3b565b93612c1d81336140b0565b613c95565b34610419575f3660031901126104195760206040517f97667070c54ef182b0f5858b034beac1b6f3089aa2d3188bb1e8929f4fa9b9298152f35b34610419575f3660031901126104195760045460405160089190911c6001600160a01b03168152602090f35b34610419576020366003190112610419576004355f52600b602052602060405f2054604051908152f35b805191908290602001825e015f815290565b90610e8b612d02926040519384917f646174613a6170706c69636174696f6e2f6a736f6e3b6261736536342c0000006020840152603d830190612cb2565b03601f198101845283610e5a565b634e487b7160e01b5f52601160045260245ffd5b90620f4240820291808304620f42401490151715612d3e57565b612d10565b906127108202918083046127101490151715612d3e57565b600281901b91906001600160fe1b03811603612d3e57565b81810292918115918404141715612d3e57565b9060018201809211612d3e57565b9060028201809211612d3e57565b91908201809211612d3e57565b60809181526040602082015260026040820152614e4f60f01b60608201520190565b60405190612de0602083610e5a565b5f8252565b906064811015610cb75760051b0190565b91908203918211612d3e57565b6001600160801b039182169082160391908211612d3e57565b6001600160401b03610384911601906001600160401b038211612d3e57565b92919094612e4984336140b0565b6001600160a01b038616948515612faa576001600160a01b038516958615612f98578351855190818103612f835750505f5b8451811015612f18578060051b6020808288010151918801015190612eab8961192f835f525f60205260405f2090565b54828110612ef957612ee98c61192f85948d612edb60019998612ef197039161192f845f525f60205260405f2090565b555f525f60205260405f2090565b918254612da2565b905501612e7b565b89611abd83856040519485946303dee4c560e01b865260048601615c66565b50610e8b9697929795919560018551145f14612f5c5760208581015187820151604080519283529282015233915f516020615fdd5f395f51905f5291a45b33615e46565b6040515f516020615fbd5f395f51905f52339180612f7b8a8a83615c8a565b0390a4612f56565b635b05999160e01b5f5260045260245260445ffd5b626a0d4560e21b5f525f60045260245ffd5b632bfa23e760e11b5f525f60045260245ffd5b90612fc782610eac565b612fd46040519182610e5a565b8281528092612fe5601f1991610eac565b01905f5b828110612ff557505050565b60209060405161300481610e03565b5f81525f838201525f60408201525f60608201525f60808201525f60a08201525f60c08201525f60e082015282828501015201612fe9565b805115610cb75760200190565b8051821015610cb75760209160051b010190565b90600a5491821580156131ac575b6131a5578281101561319a57613082908093612df6565b9161308c81612fbd565b925f5b82811061309b57505050565b806130bd6130b36130ae60019486612da2565b610c9f565b90549060031b1c90565b61317e6130d2825f52600960205260405f2090565b80549061316e6130e58783015460070b90565b916131656130fd60038301546001600160401b031690565b9361315c60068401549561314c6131188860ff9060101c1690565b93613131600560188b901c60ff169801549961ffff1690565b9961313a610e7b565b9c8d5260208d015260070b60408c0152565b6001600160401b031660608a0152565b15156080880152565b151560a0860152565b60c084015261ffff1660e0830152565b6131888288613049565b526131938187613049565b500161308f565b506130828280612df6565b5060609150565b50801561306b565b919091805183518082036132535750508051906131d082610eac565b916131de6040519384610e5a565b8083526131ed601f1991610eac565b013660208401375f5b815181101561324c578061323b60019260051b60208082870101519189010151905f918252602082815260408084206001600160a01b03909316845291905290205490565b6132458286613049565b52016131f6565b5090925050565b635b05999160e01b5f5260045260245260445ffd5b8115613272570490565b634e487b7160e01b5f52601260045260245ffd5b9190811015610cb75760051b0190565b906001600160401b03809116911603906001600160401b038211612d3e57565b90816020910312610419575190565b908060209392818452848401375f828201840152601f01601f1916010190565b90602083828152019060208160051b85010193835f915b83831061330c5750505050505090565b909192939495601f198282030186528635601e198436030181121561041957830190602082359201916001600160401b0381116104195780360383136104195761335c60209283926001956132c5565b9801960194930191906132fc565b91602061059e9381815201916132e5565b6040513d5f823e3d90fd5b604080519091906133978382610e5a565b6001815291601f1901366020840137565b9190826080910312610419576040516133c081610e24565b809280516133cd81610b30565b825260208101516133dd81612258565b602083015260408101518060030b8103610419576040830152606090810151910152565b602081830312610419578051906001600160401b038211610419570181601f820112156104195780519061343482610eac565b926134426040519485610e5a565b828452602061012081860194028301019181831161041957602001925b82841061346d575050505090565b610120848303126104195760206101209160405161348a81610e3f565b8651815261349a858489016133a8565b838201526134ab8560a089016133a8565b604082015281520193019261345f565b9395949291906134d3916080865260808601916132e5565b8381036020850152602080835192838152019201905f5b81811061350e575050506060916001600160401b0380929616604085015216910152565b82518452602093840193909201916001016134ea565b3d1561354e573d9061353582610f20565b916135436040519384610e5a565b82523d5f602084013e565b606090565b1561355a57565b60405162461bcd60e51b8152602060048201526011602482015270115512081c99599d5b990819985a5b1959607a1b6044820152606490fd5b604051906135a2604083610e5a565b60028252614e4f60f01b6020830152565b604051906135c2604083610e5a565b600382526259455360e81b6020830152565b604051906135e3604083610e5a565b60078252664e4f2057494e5360c81b6020830152565b60405190613608604083610e5a565b60088252675945532057494e5360c01b6020830152565b6040519061362e604083610e5a565b600782526650656e64696e6760c81b6020830152565b6002610e8b9161366861366295946040519687936020850190612cb2565b90612cb2565b615d7d60f01b815203601d19810185520183610e5a565b60ff6004541661368b57565b63d93c066560e01b5f5260045ffd5b60025f51602061603d5f395f51905f5254146136c35760025f51602061603d5f395f51905f5255565b633ee5aeb560e01b5f5260045ffd5b60015f51602061603d5f395f51905f5255565b6040516323b872dd60e01b5f9081526001600160a01b039384166004529290931660245260449390935260209060648180865af160015f5114811615613754575b6040919091525f606052155b6137395750565b635274afe760e01b5f526001600160a01b031660045260245ffd5b600181151661376a573d15833b15151616613726565b503d5f823e3d90fd5b92936001600160a01b0384169390929091908415612faa5761379491615766565b9290948551845190818103612f835750505f5b86518110156137e55780876137dd612ee98761192f60208060019860051b8097010151958c010151945f525f60205260405f2090565b9055016137a7565b5092909460208091610e8b9660018251145f14613842575f838301515f516020615fdd5f395f51905f526138318689015160405191829133958360209093929193604081019481520152565b0390a45b0151910151915f33615cfd565b5f6040515f516020615fbd5f395f51905f523391806138628a8883615c8a565b0390a4613835565b6040519061387782610e24565b5f6060838281528260208201528260408201520152565b6040519060e082018281106001600160401b03821117610e1f5760405281610c80604051906138bd8183610e5a565b5f5b8181106138f15750508160c0915f93528260208201528260408201528260608201528260808201528260a08201520152565b6020906138fc61386a565b81850152016138bf565b60ff168015612d3e575f190190565b906063811015610cb75760030201905f90565b60ff1660ff8114612d3e5760010190565b929093919361394661388e565b94606460ff82161115613b38575060649391905b916139656001610d90565b6001946063865b6139ea575b5050506001600160801b03821660a0860152509091506139a4906118f1905b6001600160801b03161560c0850181905290565b806139e3575b806139c5575b6139b657565b636180f03f60e11b5f5260045ffd5b5060408201516139dd906001600160801b0316610710565b156139b0565b505f6139aa565b60ff81168781101580613b26575b80613b13575b15613b0d5787613a19613a11828561579d565b828701613915565b508054915b613a46575b50508714613a415790613a3887949392613906565b9091929361396c565b613971565b919493819793999691151580613afb575b80613ae8575b15613ada57613a84613a778987905f5260205260405f2090565b546001600160a01b031690565b6001600160a01b03838116911614613acb57613abb8b8b8996866003613ab28e8c905f5260205260405f2090565b01549c8a6157e6565b9793999391969592909495613a1e565b630765128d60e31b5f5260045ffd5b939491819699939750613a23565b5060208b015160ff828116911610613a5d565b506001600160801b0384161515613a57565b50613971565b50602089015160ff8481169116106139fe565b506001600160801b03861615156139f8565b93919061395a565b939092613b4b61388e565b92606460ff82161115613c8c57506064939190915b613b695f610d90565b6001925b606360ff8516111580613c7a575b80613c67575b15613c4457613b9e613b9460018661579d565b61012a8901613915565b50918254905b81151580613c32575b80613c1f575b15613c0857613bcd613a77838b905f5260205260405f2090565b6001600160a01b03848116911614613acb578686613c0392866003613bfa878f905f5260205260405f2090565b0154958d6157e6565b613ba4565b93949050613c17919250613928565b929190613b6d565b50602087015160ff898116911610613bb3565b506001600160801b0381161515613bad565b506001600160801b03811660a085015292945092506139a4916118f19150613990565b50602085015160ff878116911610613b81565b506001600160801b0382161515613b7b565b93919091613b60565b909390916001600160a01b038516908115612faa576001600160a01b038416948515612f9857613cc491615766565b9290918251845190818103612f835750505f5b8351811015613d5e578060051b6020808287010151918701015190613d078861192f835f525f60205260405f2090565b54828110613d3f57612ee98b61192f85948c612edb60019998613d3797039161192f845f525f60205260405f2090565b905501613cd7565b88611abd83856040519485946303dee4c560e01b865260048601615c66565b50610e8b96926020929691839260018351145f14613dad57838301518785015160408051928352602083019190915233915f516020615fdd5f395f51905f529190a45b01519201519233615cfd565b6040515f516020615fbd5f395f51905f52339180613dcc8b8883615c8a565b0390a4613da1565b916040519163a9059cbb60e01b5f5260018060a01b031660045260245260205f60448180865af160015f5114811615613e14575b60409190915215613732565b600181151661376a573d15833b15151616613e08565b926001600160a01b038416929091908315612f9857613e4891615766565b91906020915f604051613e5b8582610e5a565b528151845190818103612f835750505f5b8251811015613ee4578060051b848082860101519187010151613e9a8961192f845f525f60205260405f2090565b54818110613ec5578961192f6001959493613ebe9303935f525f60205260405f2090565b5501613e6c565b89611abd84846040519485946303dee4c560e01b865260048601615c66565b50945090915f939260018351148514613f28579182015191015160408051928352602083019190915233915f516020615fdd5f395f51905f5291819081015b0390a4565b50613f235f516020615fbd5f395f51905f5291604051918291339583615c8a565b335f9081527f3617319a054d772f909f7c479a2cebe5066e836a939412e32403c99029b92eff602052604090205460ff1615613f8157565b63e2517d3f60e01b5f52336004525f60245260445ffd5b335f9081527fc03103fc9c0ad7e4001ede1c469953fc46455d111e3d6da3b661469b87ece8d5602052604090205460ff1615613fd057565b63e2517d3f60e01b5f52336004527f97667070c54ef182b0f5858b034beac1b6f3089aa2d3188bb1e8929f4fa9b92960245260445ffd5b335f9081527fce8f7da8588c3839766480da806b8a6530cac86f35d5448a80ebe069e551d1f4602052604090205460ff161561403f57565b63e2517d3f60e01b5f52336004527f6666bf5bfee463d10a7fc50448047f8a53b7762d7e28fbc5c643182785f3fd3f60245260445ffd5b5f81815260036020908152604080832033845290915290205460ff161561409a5750565b63e2517d3f60e01b5f523360045260245260445ffd5b6001600160a01b03918216918116908282141590816140e8575b506140d3575050565b63711bec9160e11b5f5260045260245260445ffd5b5f8481526001602090815260408083206001600160a01b0390941683529290522060ff91505416155f6140ca565b5f8181526003602090815260408083206001600160a01b038616845290915290205460ff166141a0575f8181526003602090815260408083206001600160a01b03861684529091529020805460ff1916600117905533916001600160a01b0316907f2f8788117e7eff1d82e926ec794901d17c78024a50270940304540a733656f0d5f80a4600190565b50505f90565b5f8181526003602090815260408083206001600160a01b038616845290915290205460ff16156141a0575f8181526003602090815260408083206001600160a01b03861684529091529020805460ff1916905533916001600160a01b0316907ff6391f5c32d9c69d2a47ea670b442974b53935d1edc7fd64eb21e047a839171b5f80a4600190565b805f52600e6020527f29dd9ae0691d155c56c717748adfc5f9385b34237a577610bb3ee5f1842caa4161431160405f205493835f5260106020526142e48160ff60405f20541696865f52601160205260ff60405f20541690614298815f52600d60205260405f2090565b885f5260205260018060801b03600160405f2001541698816142cc8a6142c78d955f52600d60205260405f2090565b6159d9565b6142de815f52600960205260405f2090565b90614bba565b6142ed84615aa9565b6040516001600160801b0390951685526001600160a01b0316939081906020820190565b0390a3565b60635b60ff81166001811061435b5761433a6143318361578b565b60018501613915565b5054614355576001146141a05761435090613906565b614319565b50905090565b5050505f90565b906002811015610d9a5760ff80198354169116179055565b919260ff6040929594614391856060810198610dae565b1660208401526001600160801b0316910152565b939293919091805f52600d60205260405f209160ff8416600181109081156145a1575b5061458b576001600160801b0381161561457c577f6b79d0e885c1922b8df12bd9fd99a5b86d849cf9dad4d296c905ba24bcb19741906144d6600261025386016144128154612d86565b81555495614476614421610e8d565b6001600160a01b038c1681526001600160801b038616602082015260ff8a166040820152614453600160608301615af1565b5f60808201525f60a08201526144718984905f5260205260405f2090565b615afd565b6144806001610d90565b6144a28761449a6144908b61578b565b61012a8501613915565b508093615f47565b0180546144b99084906001600160801b03166157cd565b81546001600160801b0319166001600160801b0391909116179055565b8396836144eb865f52600e60205260405f2090565b5561452181614502875f52600f60205260405f2090565b80546001600160a01b0319166001600160a01b03909216919091179055565b61453d6001614538875f52601060205260405f2090565b614362565b61456286614553875f52601160205260405f2090565b9060ff1660ff19825416179055565b613f2360405192839260018060a01b03169760018461437a565b63524f409b60e01b5f5260045ffd5b631d7812a760e01b5f5260ff841660045260245ffd5b60639150115f6143c8565b90929493815f52600d60205260405f209260ff811660018110908115614743575b5061472e576001600160801b0387161561457c577f6b79d0e885c1922b8df12bd9fd99a5b86d849cf9dad4d296c905ba24bcb19741916146aa600261025387016146178154612d86565b81555496614675614626610e8d565b6001600160a01b03861681526001600160801b038d16602082015260ff871660408201526146578b60608301615af1565b5f60808201525f60a08201526144718a84905f5260205260405f2090565b61467e89610d90565b8861471e576146938861449a6143318861578b565b0180546144b9908b906001600160801b03166157cd565b613f238598856146c2885f52600e60205260405f2090565b556146d983614502895f52600f60205260405f2090565b6146ef88614538895f52601060205260405f2090565b61470584614553895f52601160205260405f2090565b6040516001600160a01b0390931697929384938461437a565b6146938861449a6144908861578b565b631d7812a760e01b5f5260ff1660045260245ffd5b60639150115f6145cd565b9461475761388e565b939161476281610d90565b6148965790916001925b60ff821660ff8516111580614884575b8061486a575b1561484657614795613b9460018661579d565b50918254915b82151580614834575b8061481a575b156147ff576147c4613a77848b905f5260205260405f2090565b6001600160a01b03898116911614613acb5786866147fa928660036147f1888f905f5260205260405f2090565b0154968d6157e6565b61479b565b9392509360ff915061481090613928565b939192905061476c565b50606460ff61482d60208a015160ff1690565b16106147aa565b506001600160801b03811615156147a4565b9250509250610e8b9193505b6001600160801b031660a084018190521560c0840152565b50606460ff61487d602088015160ff1690565b1610614782565b506001600160801b038116151561477c565b929460019491926063865b6148b5575b50505050610e8b919250614852565b60ff821660ff821681811015806149ce575b806149b4575b156149ad57886148e86148e0828661579d565b828801613915565b508054915b614914575b50501461490f579061490687949392613906565b909192936148a1565b6148a6565b81989115158061499b575b8c81614987575b501561497f57614941613a778a89905f5260205260405f2090565b6001600160a01b03898116911614613acb576149788c868d9484600361496f8f8e905f5260205260405f2090565b01549d8c6157e6565b98916148ed565b8198506148f2565b60200151606460ff9091161090508c614926565b506001600160801b038216151561491f565b50506148a6565b50606460ff6149c760208d015160ff1690565b16106148cd565b506001600160801b03871615156148c7565b929192602084019460ff6149f5875160ff1690565b1615614bb257614a0d825f52600960205260405f2090565b945f5b614a1e610a19895160ff1690565b60ff821690811015614ba75760ff6001614a1e938a614a41610a19958851612de5565b518a604082018d8c614a5c610710845160018060801b031690565b92614a76610a256060880195610a1f610a19885160ff1690565b948651946020880195845f516020615ffd5f395f51905f52614ab2614aa18a5160018060a01b031690565b94614aab87610d90565b5160ff1690565b8651604080516001600160a01b038c8116825260ff8a81166020840152909416918101919091526001600160801b039091166060820152941693608090a4614af981610d90565b614b5b5784614b4994614b23600595614b519a956109ef610710614b40975160018060801b031690565b8454611727906001600160a01b031691516001600160a01b031690565b01918254612df6565b905551615bab565b0116915050614a10565b84600593614b92614b4093614ba29a956109ef610710614b84614b499b5160018060a01b031690565b93516001600160801b031690565b84546001600160a01b0316613dd4565b614b51565b505050945050505050565b945050505050565b9093916002811015610d9a57614c0e5750610a2560059260ff614be693169060018060801b0316612d73565b9101918254828103908111612d3e57909255600554610e8b92906001600160a01b0316613dd4565b9050610e8b93919250614c1f612dd1565b926001600160801b03169130613c95565b60015b606360ff82161115614c455750505f90565b614c5b614c518261578b565b61012a8401613915565b5054614c6f57614c6a90613928565b614c33565b905090565b90614d5f6101006006610e8b9484518155614cb6614c96602087015160070b90565b60018301906001600160401b0319825416906001600160401b0316179055565b60408501516002820155614cf6614cd760608701516001600160401b031690565b60038301906001600160401b03166001600160401b0319825416179055565b6080850151600482015560a085015160058201550192614d30614d1e60c083015161ffff1690565b855461ffff191661ffff909116178555565b614d58614d4060e0830151151590565b855462ff0000191690151560101b62ff000016178555565b0151151590565b815463ff000000191690151560181b63ff00000016179055565b600a54600160401b811015610e1f5760018101600a55600a54811015610cb757600a5f527fc65a7bb8d6351c1cf70c95a316cc6a92839c986682d98bc35f958f4883f9d2a80155565b909291614de46118f1614ddd845f52600860205260405f2090565b5460ff1690565b614fbd576040805160208101848152600787900b928201929092526001600160401b0383166060820152614e1b816080810161087a565b519020936001600160401b03614e4c6003614e3e885f52600960205260405f2090565b01546001600160401b031690565b16614fa95784917f124a2b0b0384b7455ace5c25664b94d4ad3f77adbe0440be9e42b0a8880e04ca91614eff614e8a865f52600760205260405f2090565b54600654614edb9060a01c61ffff16614ea1610e9c565b898152600786900b60208201529260408401526001600160401b03861660608401525f6080840181905260a084015261ffff1660c0830152565b5f60e08201525f610100820152614efa865f52600960205260405f2090565b614c74565b83614f3e6040516020810190614f198161087a8685612daf565b51902082614f2f815f52600b60205260405f2090565b555f52600b60205260405f2090565b55614f61614f54855f52600c60205260405f2090565b805460ff19166001179055565b614f6a84614d79565b614311614f7f865f52600760205260405f2090565b54604051938493846001600160401b03604092959493606083019660070b83521660208201520152565b630239bcdb60e01b5f52600485905260245ffd5b6364eac3cd60e11b5f52600482905260245ffd5b9091614fe1604083015160030b90565b6004198160030b036150945750815160070b5f81131561507f575061500d610636610636845160070b90565b602083016150318261502c610a2561063685516001600160401b031690565b613268565b61ffff84161061505657505050615049905160070b90565b9060070b9060070b121590565b5163559c565760e01b5f526001600160401b039081166004521660245261ffff1660445260645ffd5b633fb39c1560e21b5f5260070b60045260245ffd5b6317c59a0960e01b5f5260030b60045260041960245260445ffd5b906150b982610f20565b6150c66040519182610e5a565b82815280926150d7601f1991610f20565b0190602036910137565b908151811015610cb7570160200190565b5f905f5b602081106151385750615108826150af565b915f5b8181106151185750505090565b6020811015610cb75780836001921a61513182876150e1565b530161510b565b81811a60f81b6001600160f81b031916615155575b6001016150f6565b9150600161516283612d86565b92905061514d565b5f8160070b126151c95761059e6001600160401b036151bb921661087a6151a8620186a06151a161519c828606615209565b615bd2565b9304615209565b9160016040519586946020860190612cb2565b601760f91b81520190612cb2565b60405162461bcd60e51b815260206004820152601860248201527750726963654c69623a206e6567617469766520707269636560401b6044820152606490fd5b5f908072184f03e93ff9f4daa797ed6e38ed64bf6a1f0160401b81101561533c575b806d04ee2d6d415b85acef8100000000600a921015615320575b662386f26fc1000081101561530b575b6305f5e1008110156152f9575b6127108110156152e9575b60648110156152da575b10156152cf575b6152ba602161528f600185016150af565b938401015b5f1901916f181899199a1a9b1b9c1cb0b131b232b360811b600a82061a8353600a900490565b80156152ca576152ba9091615294565b505090565b60019091019061527e565b60029060649004930192615277565b600490612710900493019261526d565b6008906305f5e1009004930192615262565b601090662386f26fc100009004930192615255565b6020906d04ee2d6d415b85acef81000000009004930192615245565b506040915072184f03e93ff9f4daa797ed6e38ed64bf6a1f0160401b810461522b565b93919594929095604051968795683d913730b6b2911d1160b91b60208801526029870161538b91612cb2565b600160fd1b815260010161539e91612cb2565b63080f880960e21b81526004016153b491612cb2565b7f222c226465736372697074696f6e223a224d6572696469616e3a2057696c6c2081526020016153e391612cb2565b730818db1bdcd948185d081bdc8818589bdd99480960621b815260140161540991612cb2565b6301037b7160e51b815260040161541f91612cb2565b703f222c2261747472696275746573223a5b60781b815203600e1981018352601101610e8b9083610e5a565b929492939091901561562057604051615465604082610e5a565b600781526614d95d1d1b195960ca1b6020820152915b604051958695602087017f7b2274726169745f74797065223a225469636b6572222c2276616c7565223a229052604087016154b591612cb2565b62089f4b60ea1b81527f7b2274726169745f74797065223a22546f6b656e2054797065222c2276616c7560038201526332911d1160e11b602382015261550091602790910190612cb2565b62089f4b60ea1b81527f7b2274726169745f74797065223a22537472696b65222c2276616c7565223a226003820152600960fa1b602382015261554891602490910190612cb2565b62089f4b60ea1b81527f7b2274726169745f74797065223a22457870697279222c2276616c7565223a22600382015260230161558391612cb2565b62089f4b60ea1b81527f7b2274726169745f74797065223a22537461747573222c2276616c7565223a2260038201526023016155be91612cb2565b62089f4b60ea1b81527f7b2274726169745f74797065223a224f7574636f6d65222c2276616c7565223a6003820152601160f91b602382015260240161560391612cb2565b61227d60f01b815203601d198101825260020161059e9082610e5a565b60405161562e604082610e5a565b600681526541637469766560d01b60208201529161547b565b9081511561575c5761566b61566661565f8451612d94565b6003900490565b612d5b565b90604051917f4142434445464748494a4b4c4d4e4f505152535455565758595a616263646566601f527f6768696a6b6c6d6e6f707172737475767778797a303132333435363738392b2f603f52602083018480518101602081018051915f82525b808910615720575060209596975090600392915251068060011461570b576002146156fe575b50808452830101604052565b603d905f1901535f6156f2565b50603d90815f1982015360011901535f6156f2565b939760036004910198603f8a51818160121c165183538181600c1c16516001840153818160061c165160028401531651600382015301936156cc565b905061059e612dd1565b9160405192600184526020840152604083019160018352606084015260808301604052565b60ff5f199116019060ff8211612d3e57565b9060ff8091169116039060ff8211612d3e57565b6001600160801b039182169082160290811691908203612d3e57565b6001600160801b039182169082160191908211612d3e57565b919061059e956159246158018386905f5260205260405f2090565b9660806001890193615819855460018060801b031690565b6001600160801b0381165f196001851b018b1610156159cf57506158c5899a5b61586861585861584761386a565b8a815292546001600160a01b031690565b6001600160a01b03166020830152565b6001600160801b038c16604082015260ff851660608201526158aa8351916020850192615899610a19855160ff1690565b916158a48383612de5565b52612de5565b506158be6158b9825160ff1690565b613928565b60ff169052565b6158fc6158d560ff85168c6157b1565b60608301805190916158ef916001600160801b03166157cd565b6001600160801b03169052565b60408101805161591b91906158ef908d906001600160801b03166157cd565b019060ff169052565b60028301805461594391906144b99089906001600160801b0316612e03565b80546159799061595d9088906001600160801b0316612e03565b82546001600160801b0319166001600160801b03909116178255565b546001600160801b031615615991575b505050612e03565b826159a3826159b0946159c796615ee4565b905f5260205260405f2090565b60035f918281558260018201558260028201550155565b5f8080615989565b6158c5909a615839565b5f82815260208290526040902080546001600160a01b031615615a9557916159b0916159a3826001610e8b960154615a158160ff9060881c1690565b615a1e81610d90565b615a7257615a6c615a52615a44615a3b608085901c60ff1661578b565b60018801613915565b50926001600160801b031690565b60028301805490916144b9916001600160801b0316612e03565b83615ee4565b615a6c615a52615a44615a8b608085901c60ff1661578b565b61012a8801613915565b6313a42eb760e21b5f52600483905260245ffd5b5f908152600e60209081526040808320839055600f825280832080546001600160a01b031916905560108252808320805460ff1916905560119091529020805460ff19169055565b6002821015610d9a5752565b815181546001600160a01b0319166001600160a01b03919091161781559060208101516001830180546001600160801b0319166001600160801b0392909216919091178155906040810151825460ff60801b191660809190911b60ff60801b16178255606081015190615b6f82610d90565b6002821015610d9a57825460ff60881b191660889290921b60ff60881b16919091179091556080810151600283015560a0015160039190910155565b5f818152600f60205260409020546001600160a01b0316615bc95750565b610e8b90615aa9565b9081516005811015615c6357806005039060058211612d3e57615bf560056150af565b915f5b818110615c4d57505f5b828110615c1157509193505050565b80615c2f615c21600193896150e1565b516001600160f81b03191690565b615c46615c3c8386612da2565b915f1a91876150e1565b5301615c02565b806030615c5c600193876150e1565b5301615bf8565b50565b90949392606092608083019660018060a01b03168352602083015260408201520152565b9091615ca161059e9360408452604084019061134b565b91602081840391015261134b565b90816020910312610419575161059e816104b9565b6001600160a01b039182168152911660208201526040810191909152606081019190915260a06080820181905261059e92910190610569565b9091949293853b615d11575b505050505050565b602093615d3391604051968795869563f23a6e6160e01b875260048701615cc4565b03815f6001600160a01b0387165af15f9181615dc2575b50615d845750615d58613524565b8051919082615d7d57632bfa23e760e11b5f526001600160a01b03821660045260245ffd5b6020915001fd5b6001600160e01b031916630dc5919f60e01b01615da757505f8080808080615d09565b632bfa23e760e11b5f526001600160a01b031660045260245ffd5b615de591925060203d602011615dec575b615ddd8183610e5a565b810190615caf565b905f615d4a565b503d615dd3565b6001600160a01b0391821681529116602082015260a06040820181905261059e9491939192615e389291615e2a919086019061134b565b90848203606086015261134b565b916080818403910152610569565b9091949293853b615e5957505050505050565b602093615e7b91604051968795869563bc197c8160e01b875260048701615df3565b03815f6001600160a01b0387165af15f9181615ec3575b50615ea05750615d58613524565b6001600160e01b0319166343e6837f60e01b01615da757505f8080808080615d09565b615edd91925060203d602011615dec57615ddd8183610e5a565b905f615e92565b5f9290839182528060205260408220600281019160038354920194855483158614615f32578082555b80158614615f2057506001915001555555565b85525060205260408320600201555555565b83865282602052806003604088200155615f0d565b60018201805492939280615f8c575091615f889181600394815f975555846002615f798484905f5260205260405f2090565b0155905f5260205260405f2090565b0155565b5f90815260209290925260408083206003908101859055825485855291842060028101929092550191909155555056fe4a39dc06d4c0dbc64b70af90fd698a233a518aa5d07e595d983b8c0526c8f7fbc3d58168c5ae7397731d063d5bbf3d657854427343f4c083240f7aacaa2d0f624673e67a389421afca959158ea40ba94d07a267fbc7af1e5396cc8ac94f138b98dfe2e4992c35f0c2e1a1ae78bde2b832d7fabb19bb9e73ec22c5cc2ee89db239b779b17422d0df92223018b32b4d1fa46e071723d6817e2486d003becc55f00a26469706673582212200bf6f6b64abd7a78748043fa103505009b03129bbf4809de458700fd46474c3d64736f6c634300082100333617319a054d772f909f7c479a2cebe5066e836a939412e32403c99029b92eff","linkReferences":{}},"methodIdentifiers":{"ADMIN_OVERRIDE_DELAY()":"f956c6dd","DEFAULT_ADMIN_ROLE()":"a217fddf","MAX_FEE_BPS()":"d55be8c6","MAX_PARSE_WINDOW()":"e6e9e149","OPERATOR_ROLE()":"f5b541a6","SETTLER_ROLE()":"7445e85c","addStrike(bytes32,int64,uint64)":"972a94d6","adminSettleOverride(bytes32,int64)":"1ea8aaf3","allMarketIds(uint256)":"23188024","balanceOf(address,uint256)":"00fdd58e","balanceOfBatch(address[],uint256[])":"4e1273f4","bestAsk(bytes32)":"7e3d8085","bestBid(bytes32)":"5771f997","bulkCancelOrders(uint256[])":"787508ea","buyNoLimit(bytes32,uint128,uint8)":"689a02db","buyNoMarket(bytes32,uint128,uint128,uint8)":"1d4b41d0","cancelOrder(uint256)":"514fcac7","createStrikeMarket(bytes32,int64,uint64)":"e73d073a","depthAt(bytes32,uint8,uint8)":"ba95b018","feeBps()":"24a9d853","feeRecipient()":"46904840","getMarkets(uint256)":"333c8403","getRoleAdmin(bytes32)":"248a9ca3","grantRole(bytes32,address)":"2f2ff15d","hasRole(bytes32,address)":"91d14854","isApprovedForAll(address,address)":"e985e9c5","marketCount()":"ec979082","markets(bytes32)":"7564912b","maxConfBps()":"9621472e","mintPair(bytes32,uint128)":"bedfad19","noTokenId(bytes32)":"af73823b","onERC1155BatchReceived(address,address,uint256[],uint256[],bytes)":"bc197c81","onERC1155Received(address,address,uint256,uint256,bytes)":"f23a6e61","orderMarket(uint256)":"cf549c8a","orderOwner(uint256)":"404de361","orderPriceCents(uint256)":"2a1ce312","orderSide(uint256)":"2ab6c03c","pause()":"8456cb59","paused()":"5c975abb","placeOrder(bytes32,uint8,uint8,uint128,bool)":"7d05f4b4","pyth()":"f98d06f0","redeem(bytes32,uint256)":"673da154","renounceRole(bytes32,address)":"36568abe","revokeRole(bytes32,address)":"d547741f","safeBatchTransferFrom(address,address,uint256[],uint256[],bytes)":"2eb2c2d6","safeTransferFrom(address,address,uint256,uint256,bytes)":"f242432a","sellNoMarket(bytes32,uint128,uint8,uint8)":"605d8075","setApprovalForAll(address,bool)":"a22cb465","setFee(uint16)":"8e005553","setFeeRecipient(address)":"e74b981b","setMaxConfBps(uint16)":"4075b7bc","setOracle(address)":"7adbf973","setSupportedFeed(bytes32,bytes32,bool)":"43ce2fcc","settleMarket(bytes32,bytes[],uint64,uint64)":"a07b2257","supportedFeeds(bytes32)":"01909247","supportedTickers(bytes32)":"b886a758","supportsInterface(bytes4)":"01ffc9a7","tokenIdIsYes(uint256)":"8c794edd","tokenIdToMarket(uint256)":"fd759aeb","unpause()":"3f4ba83a","uri(uint256)":"0e89341c","usdc()":"3e413bee","yesTokenId(bytes32)":"10df63c1"},"id":56}